{
  "contractName": "PoBA",
  "abi": [
    {
      "constant": true,
      "inputs": [],
      "name": "signer",
      "outputs": [
        {
          "name": "",
          "type": "address"
        }
      ],
      "payable": false,
      "stateMutability": "view",
      "type": "function"
    },
    {
      "constant": true,
      "inputs": [],
      "name": "totalBankAccounts",
      "outputs": [
        {
          "name": "",
          "type": "uint64"
        }
      ],
      "payable": false,
      "stateMutability": "view",
      "type": "function"
    },
    {
      "constant": true,
      "inputs": [],
      "name": "owner",
      "outputs": [
        {
          "name": "",
          "type": "address"
        }
      ],
      "payable": false,
      "stateMutability": "view",
      "type": "function"
    },
    {
      "constant": true,
      "inputs": [
        {
          "name": "",
          "type": "address"
        }
      ],
      "name": "users",
      "outputs": [
        {
          "name": "creationBlock",
          "type": "uint256"
        }
      ],
      "payable": false,
      "stateMutability": "view",
      "type": "function"
    },
    {
      "constant": true,
      "inputs": [],
      "name": "totalUsers",
      "outputs": [
        {
          "name": "",
          "type": "uint64"
        }
      ],
      "payable": false,
      "stateMutability": "view",
      "type": "function"
    },
    {
      "inputs": [],
      "payable": false,
      "stateMutability": "nonpayable",
      "type": "constructor"
    },
    {
      "anonymous": false,
      "inputs": [
        {
          "indexed": true,
          "name": "wallet",
          "type": "address"
        },
        {
          "indexed": false,
          "name": "keccakIdentifier",
          "type": "bytes32"
        }
      ],
      "name": "LogBankAccountRegistered",
      "type": "event"
    },
    {
      "anonymous": false,
      "inputs": [
        {
          "indexed": true,
          "name": "wallet",
          "type": "address"
        },
        {
          "indexed": false,
          "name": "keccakIdentifier",
          "type": "bytes32"
        }
      ],
      "name": "LogBankAccountUnregistered",
      "type": "event"
    },
    {
      "anonymous": false,
      "inputs": [
        {
          "indexed": false,
          "name": "newSigner",
          "type": "address"
        }
      ],
      "name": "LogSignerChanged",
      "type": "event"
    },
    {
      "constant": true,
      "inputs": [
        {
          "name": "data",
          "type": "bytes32"
        },
        {
          "name": "v",
          "type": "uint8"
        },
        {
          "name": "r",
          "type": "bytes32"
        },
        {
          "name": "s",
          "type": "bytes32"
        }
      ],
      "name": "signerIsValid",
      "outputs": [
        {
          "name": "",
          "type": "bool"
        }
      ],
      "payable": false,
      "stateMutability": "view",
      "type": "function"
    },
    {
      "constant": true,
      "inputs": [
        {
          "name": "wallet",
          "type": "address"
        }
      ],
      "name": "userExists",
      "outputs": [
        {
          "name": "",
          "type": "bool"
        }
      ],
      "payable": false,
      "stateMutability": "view",
      "type": "function"
    },
    {
      "constant": false,
      "inputs": [
        {
          "name": "newSigner",
          "type": "address"
        }
      ],
      "name": "setSigner",
      "outputs": [],
      "payable": false,
      "stateMutability": "nonpayable",
      "type": "function"
    },
    {
      "constant": false,
      "inputs": [
        {
          "name": "account",
          "type": "string"
        },
        {
          "name": "institution",
          "type": "string"
        },
        {
          "name": "names",
          "type": "string"
        },
        {
          "name": "v",
          "type": "uint8"
        },
        {
          "name": "r",
          "type": "bytes32"
        },
        {
          "name": "s",
          "type": "bytes32"
        }
      ],
      "name": "register",
      "outputs": [],
      "payable": false,
      "stateMutability": "nonpayable",
      "type": "function"
    },
    {
      "constant": false,
      "inputs": [
        {
          "name": "account",
          "type": "string"
        },
        {
          "name": "institution",
          "type": "string"
        },
        {
          "name": "names",
          "type": "string"
        }
      ],
      "name": "unregisterBankAccount",
      "outputs": [],
      "payable": false,
      "stateMutability": "nonpayable",
      "type": "function"
    },
    {
      "constant": true,
      "inputs": [
        {
          "name": "wallet",
          "type": "address"
        },
        {
          "name": "account",
          "type": "string"
        },
        {
          "name": "institution",
          "type": "string"
        },
        {
          "name": "names",
          "type": "string"
        }
      ],
      "name": "userBankAccountByBankAccount",
      "outputs": [
        {
          "name": "",
          "type": "bool"
        },
        {
          "name": "",
          "type": "uint256"
        }
      ],
      "payable": false,
      "stateMutability": "view",
      "type": "function"
    },
    {
      "constant": true,
      "inputs": [
        {
          "name": "wallet",
          "type": "address"
        },
        {
          "name": "keccakIdentifier",
          "type": "bytes32"
        }
      ],
      "name": "userBankAccountByKeccakIdentifier",
      "outputs": [
        {
          "name": "",
          "type": "bool"
        },
        {
          "name": "",
          "type": "uint256"
        }
      ],
      "payable": false,
      "stateMutability": "view",
      "type": "function"
    },
    {
      "constant": true,
      "inputs": [
        {
          "name": "_address",
          "type": "address"
        }
      ],
      "name": "accountsLength",
      "outputs": [
        {
          "name": "",
          "type": "uint256"
        }
      ],
      "payable": false,
      "stateMutability": "view",
      "type": "function"
    },
    {
      "constant": true,
      "inputs": [
        {
          "name": "_address",
          "type": "address"
        },
        {
          "name": "addressIndex",
          "type": "uint256"
        }
      ],
      "name": "getBankAccounts",
      "outputs": [
        {
          "name": "accountNumber",
          "type": "string"
        },
        {
          "name": "bankName",
          "type": "string"
        },
        {
          "name": "identityNames",
          "type": "string"
        },
        {
          "name": "attestationDate",
          "type": "uint256"
        }
      ],
      "payable": false,
      "stateMutability": "view",
      "type": "function"
    }
  ],
  "bytecode": "0x608060405234801561001057600080fd5b50336000806101000a81548173ffffffffffffffffffffffffffffffffffffffff021916908373ffffffffffffffffffffffffffffffffffffffff1602179055506000809054906101000a900473ffffffffffffffffffffffffffffffffffffffff16600160006101000a81548173ffffffffffffffffffffffffffffffffffffffff021916908373ffffffffffffffffffffffffffffffffffffffff160217905550611fed806100c26000396000f3006080604052600436106100d0576000357c0100000000000000000000000000000000000000000000000000000000900463ffffffff1680630e666e49146100d557806318e19849146101305780631e0ce1c51461024e578063238ac933146103f3578063592b73241461044a5780635c46d5a1146104895780636c19e783146104e05780638da5cb5b14610523578063a87430ba1461057a578063bff1f9e1146105d1578063cc24ce8114610610578063d0dad8f214610744578063d956be1014610839578063fa31643c146108ab575b600080fd5b3480156100e157600080fd5b50610116600480360381019080803573ffffffffffffffffffffffffffffffffffffffff16906020019092919050505061091b565b604051808215151515815260200191505060405180910390f35b34801561013c57600080fd5b5061024c600480360381019080803590602001908201803590602001908080601f0160208091040260200160405190810160405280939291908181526020018383808284378201915050505050509192919290803590602001908201803590602001908080601f0160208091040260200160405190810160405280939291908181526020018383808284378201915050505050509192919290803590602001908201803590602001908080601f0160208091040260200160405190810160405280939291908181526020018383808284378201915050505050509192919290803560ff16906020019092919080356000191690602001909291908035600019169060200190929190505050610969565b005b34801561025a57600080fd5b50610299600480360381019080803573ffffffffffffffffffffffffffffffffffffffff16906020019092919080359060200190929190505050610e87565b60405180806020018060200180602001858152602001848103845288818151815260200191508051906020019080838360005b838110156102e75780820151818401526020810190506102cc565b50505050905090810190601f1680156103145780820380516001836020036101000a031916815260200191505b50848103835287818151815260200191508051906020019080838360005b8381101561034d578082015181840152602081019050610332565b50505050905090810190601f16801561037a5780820380516001836020036101000a031916815260200191505b50848103825286818151815260200191508051906020019080838360005b838110156103b3578082015181840152602081019050610398565b50505050905090810190601f1680156103e05780820380516001836020036101000a031916815260200191505b5097505050505050505060405180910390f35b3480156103ff57600080fd5b506104086111f4565b604051808273ffffffffffffffffffffffffffffffffffffffff1673ffffffffffffffffffffffffffffffffffffffff16815260200191505060405180910390f35b34801561045657600080fd5b5061045f61121a565b604051808267ffffffffffffffff1667ffffffffffffffff16815260200191505060405180910390f35b34801561049557600080fd5b506104ca600480360381019080803573ffffffffffffffffffffffffffffffffffffffff169060200190929190505050611234565b6040518082815260200191505060405180910390f35b3480156104ec57600080fd5b50610521600480360381019080803573ffffffffffffffffffffffffffffffffffffffff169060200190929190505050611283565b005b34801561052f57600080fd5b50610538611385565b604051808273ffffffffffffffffffffffffffffffffffffffff1673ffffffffffffffffffffffffffffffffffffffff16815260200191505060405180910390f35b34801561058657600080fd5b506105bb600480360381019080803573ffffffffffffffffffffffffffffffffffffffff1690602001909291905050506113aa565b6040518082815260200191505060405180910390f35b3480156105dd57600080fd5b506105e66113c8565b604051808267ffffffffffffffff1667ffffffffffffffff16815260200191505060405180910390f35b34801561061c57600080fd5b50610723600480360381019080803573ffffffffffffffffffffffffffffffffffffffff169060200190929190803590602001908201803590602001908080601f0160208091040260200160405190810160405280939291908181526020018383808284378201915050505050509192919290803590602001908201803590602001908080601f0160208091040260200160405190810160405280939291908181526020018383808284378201915050505050509192919290803590602001908201803590602001908080601f01602080910402602001604051908101604052809392919081815260200183838082843782019150505050505091929192905050506113e2565b60405180831515151581526020018281526020019250505060405180910390f35b34801561075057600080fd5b50610837600480360381019080803590602001908201803590602001908080601f0160208091040260200160405190810160405280939291908181526020018383808284378201915050505050509192919290803590602001908201803590602001908080601f0160208091040260200160405190810160405280939291908181526020018383808284378201915050505050509192919290803590602001908201803590602001908080601f01602080910402602001604051908101604052809392919081815260200183838082843782019150505050505091929192905050506115d3565b005b34801561084557600080fd5b506108916004803603810190808035600019169060200190929190803560ff16906020019092919080356000191690602001909291908035600019169060200190929190505050611a34565b604051808215151515815260200191505060405180910390f35b3480156108b757600080fd5b506108fa600480360381019080803573ffffffffffffffffffffffffffffffffffffffff1690602001909291908035600019169060200190929190505050611c30565b60405180831515151581526020018281526020019250505060405180910390f35b600080600260008473ffffffffffffffffffffffffffffffffffffffff1673ffffffffffffffffffffffffffffffffffffffff16815260200190815260200160002060000154119050919050565b610971611d39565b600080885111151561098257600080fd5b6000875111151561099257600080fd5b7fffffffffffffffffffffffffffffffffffffffffffffffffffffffffffffffff600260003373ffffffffffffffffffffffffffffffffffffffff1673ffffffffffffffffffffffffffffffffffffffff16815260200190815260200160002060010180549050101515610a0557600080fd5b610a0e3361091b565b1515610a9f5743600260003373ffffffffffffffffffffffffffffffffffffffff1673ffffffffffffffffffffffffffffffffffffffff168152602001908152602001600020600001819055506001600360008282829054906101000a900467ffffffffffffffff160192506101000a81548167ffffffffffffffff021916908367ffffffffffffffff1602179055505b878260000181905250868260200181905250858260400181905250428260600181815250506001826080019015159081151581525050438260c001818152505033826000015183602001518460400151604051602001808573ffffffffffffffffffffffffffffffffffffffff1673ffffffffffffffffffffffffffffffffffffffff166c0100000000000000000000000002815260140184805190602001908083835b602083101515610b685780518252602082019150602081019050602083039250610b43565b6001836020036101000a03801982511681845116808217855250505050505090500183805190602001908083835b602083101515610bbb5780518252602082019150602081019050602083039250610b96565b6001836020036101000a03801982511681845116808217855250505050505090500182805190602001908083835b602083101515610c0e5780518252602082019150602081019050602083039250610be9565b6001836020036101000a0380198251168184511680821785525050505050509050019450505050506040516020818303038152906040526040518082805190602001908083835b602083101515610c7a5780518252602082019150602081019050602083039250610c55565b6001836020036101000a03801982511681845116808217855250505050505090500191505060405180910390209050610cb581868686611a34565b1515610cc057600080fd5b808260a001906000191690816000191681525050600260003373ffffffffffffffffffffffffffffffffffffffff1673ffffffffffffffffffffffffffffffffffffffff16815260200190815260200160002060010182908060018154018082558091505090600182039060005260206000209060070201600090919290919091506000820151816000019080519060200190610d5e929190611d7c565b506020820151816001019080519060200190610d7b929190611d7c565b506040820151816002019080519060200190610d98929190611d7c565b506060820151816003015560808201518160040160006101000a81548160ff02191690831515021790555060a0820151816005019060001916905560c082015181600601555050506001600360088282829054906101000a900467ffffffffffffffff160192506101000a81548167ffffffffffffffff021916908367ffffffffffffffff1602179055503373ffffffffffffffffffffffffffffffffffffffff167f2ded3da8fc0df7b3c85954545d0dfca5f7d03f5e6d96853c182e6ca7229262db8360a0015160405180826000191660001916815260200191505060405180910390a25050505050505050565b60608060606000600260008773ffffffffffffffffffffffffffffffffffffffff1673ffffffffffffffffffffffffffffffffffffffff16815260200190815260200160002060010185815481101515610edd57fe5b9060005260206000209060070201600001600260008873ffffffffffffffffffffffffffffffffffffffff1673ffffffffffffffffffffffffffffffffffffffff16815260200190815260200160002060010186815481101515610f3d57fe5b9060005260206000209060070201600101600260008973ffffffffffffffffffffffffffffffffffffffff1673ffffffffffffffffffffffffffffffffffffffff16815260200190815260200160002060010187815481101515610f9d57fe5b9060005260206000209060070201600201600260008a73ffffffffffffffffffffffffffffffffffffffff1673ffffffffffffffffffffffffffffffffffffffff16815260200190815260200160002060010188815481101515610ffd57fe5b906000526020600020906007020160030154838054600181600116156101000203166002900480601f0160208091040260200160405190810160405280929190818152602001828054600181600116156101000203166002900480156110a45780601f10611079576101008083540402835291602001916110a4565b820191906000526020600020905b81548152906001019060200180831161108757829003601f168201915b50505050509350828054600181600116156101000203166002900480601f0160208091040260200160405190810160405280929190818152602001828054600181600116156101000203166002900480156111405780601f1061111557610100808354040283529160200191611140565b820191906000526020600020905b81548152906001019060200180831161112357829003601f168201915b50505050509250818054600181600116156101000203166002900480601f0160208091040260200160405190810160405280929190818152602001828054600181600116156101000203166002900480156111dc5780601f106111b1576101008083540402835291602001916111dc565b820191906000526020600020905b8154815290600101906020018083116111bf57829003601f168201915b50505050509150935093509350935092959194509250565b600160009054906101000a900473ffffffffffffffffffffffffffffffffffffffff1681565b600360089054906101000a900467ffffffffffffffff1681565b6000600260008373ffffffffffffffffffffffffffffffffffffffff1673ffffffffffffffffffffffffffffffffffffffff168152602001908152602001600020600101805490509050919050565b6000809054906101000a900473ffffffffffffffffffffffffffffffffffffffff1673ffffffffffffffffffffffffffffffffffffffff163373ffffffffffffffffffffffffffffffffffffffff161415156112de57600080fd5b80600160006101000a81548173ffffffffffffffffffffffffffffffffffffffff021916908373ffffffffffffffffffffffffffffffffffffffff1602179055507fee87a28570c895f7da676d522308fff544b84e34ac47fcb36b53f5ef848e5e3281604051808273ffffffffffffffffffffffffffffffffffffffff1673ffffffffffffffffffffffffffffffffffffffff16815260200191505060405180910390a150565b6000809054906101000a900473ffffffffffffffffffffffffffffffffffffffff1681565b60026020528060005260406000206000915090508060000154905081565b600360009054906101000a900467ffffffffffffffff1681565b6000806000866113f18161091b565b15156113fc57600080fd5b87878787604051602001808573ffffffffffffffffffffffffffffffffffffffff1673ffffffffffffffffffffffffffffffffffffffff166c0100000000000000000000000002815260140184805190602001908083835b6020831015156114795780518252602082019150602081019050602083039250611454565b6001836020036101000a03801982511681845116808217855250505050505090500183805190602001908083835b6020831015156114cc57805182526020820191506020810190506020830392506114a7565b6001836020036101000a03801982511681845116808217855250505050505090500182805190602001908083835b60208310151561151f57805182526020820191506020810190506020830392506114fa565b6001836020036101000a0380198251168184511680821785525050505050509050019450505050506040516020818303038152906040526040518082805190602001908083835b60208310151561158b5780518252602082019150602081019050602083039250611566565b6001836020036101000a038019825116818451168082178552505050505050905001915050604051809103902091506115c48883611c30565b93509350505094509492505050565b600080600080336115e38161091b565b15156115ee57600080fd5b6115fa338989896113e2565b809550819650505084151561160e57600080fd5b600260003373ffffffffffffffffffffffffffffffffffffffff1673ffffffffffffffffffffffffffffffffffffffff1681526020019081526020016000206001018481548110151561165d57fe5b9060005260206000209060070201600501549250600260003373ffffffffffffffffffffffffffffffffffffffff1673ffffffffffffffffffffffffffffffffffffffff168152602001908152602001600020600101805490509150600182038414151561184f57600260003373ffffffffffffffffffffffffffffffffffffffff1673ffffffffffffffffffffffffffffffffffffffff1681526020019081526020016000206001016001830381548110151561171757fe5b9060005260206000209060070201600260003373ffffffffffffffffffffffffffffffffffffffff1673ffffffffffffffffffffffffffffffffffffffff1681526020019081526020016000206001018581548110151561177457fe5b9060005260206000209060070201600082018160000190805460018160011615610100020316600290046117a9929190611dfc565b50600182018160010190805460018160011615610100020316600290046117d1929190611dfc565b50600282018160020190805460018160011615610100020316600290046117f9929190611dfc565b50600382015481600301556004820160009054906101000a900460ff168160040160006101000a81548160ff02191690831515021790555060058201548160050190600019169055600682015481600601559050505b600260003373ffffffffffffffffffffffffffffffffffffffff1673ffffffffffffffffffffffffffffffffffffffff1681526020019081526020016000206001018054809190600190036118a49190611e83565b506001600360088282829054906101000a900467ffffffffffffffff160392506101000a81548167ffffffffffffffff021916908367ffffffffffffffff1602179055506000600260003373ffffffffffffffffffffffffffffffffffffffff1673ffffffffffffffffffffffffffffffffffffffff1681526020019081526020016000206001018054905014156119d457600260003373ffffffffffffffffffffffffffffffffffffffff1673ffffffffffffffffffffffffffffffffffffffff16815260200190815260200160002060008082016000905560018201600061198e9190611eb5565b50506001600360008282829054906101000a900467ffffffffffffffff160392506101000a81548167ffffffffffffffff021916908367ffffffffffffffff1602179055505b3373ffffffffffffffffffffffffffffffffffffffff167f66533e921f088138d3807a89c7182f77f17b2b648ff59fd66be28f364e44204a8460405180826000191660001916815260200191505060405180910390a25050505050505050565b6000606060006040805190810160405280601c81526020017f19457468657265756d205369676e6564204d6573736167653a0a333200000000815250915081876040516020018083805190602001908083835b602083101515611aac5780518252602082019150602081019050602083039250611a87565b6001836020036101000a0380198251168184511680821785525050505050509050018260001916600019168152602001925050506040516020818303038152906040526040518082805190602001908083835b602083101515611b245780518252602082019150602081019050602083039250611aff565b6001836020036101000a03801982511681845116808217855250505050505090500191505060405180910390209050600160009054906101000a900473ffffffffffffffffffffffffffffffffffffffff1673ffffffffffffffffffffffffffffffffffffffff16600182888888604051600081526020016040526040518085600019166000191681526020018460ff1660ff1681526020018360001916600019168152602001826000191660001916815260200194505050505060206040516020810390808403906000865af1158015611c03573d6000803e3d6000fd5b5050506020604051035173ffffffffffffffffffffffffffffffffffffffff161492505050949350505050565b600080600084611c3f8161091b565b1515611c4a57600080fd5b600091505b600260008773ffffffffffffffffffffffffffffffffffffffff1673ffffffffffffffffffffffffffffffffffffffff16815260200190815260200160002060010180549050821015611d25578460001916600260008873ffffffffffffffffffffffffffffffffffffffff1673ffffffffffffffffffffffffffffffffffffffff16815260200190815260200160002060010183815481101515611cf057fe5b906000526020600020906007020160050154600019161415611d185760018293509350611d30565b8180600101925050611c4f565b600080809050935093505b50509250929050565b60e0604051908101604052806060815260200160608152602001606081526020016000815260200160001515815260200160008019168152602001600081525090565b828054600181600116156101000203166002900490600052602060002090601f016020900481019282601f10611dbd57805160ff1916838001178555611deb565b82800160010185558215611deb579182015b82811115611dea578251825591602001919060010190611dcf565b5b509050611df89190611ed9565b5090565b828054600181600116156101000203166002900490600052602060002090601f016020900481019282601f10611e355780548555611e72565b82800160010185558215611e7257600052602060002091601f016020900482015b82811115611e71578254825591600101919060010190611e56565b5b509050611e7f9190611ed9565b5090565b815481835581811115611eb057600702816007028360005260206000209182019101611eaf9190611efe565b5b505050565b5080546000825560070290600052602060002090810190611ed69190611efe565b50565b611efb91905b80821115611ef7576000816000905550600101611edf565b5090565b90565b611f7691905b80821115611f725760008082016000611f1d9190611f79565b600182016000611f2d9190611f79565b600282016000611f3d9190611f79565b60038201600090556004820160006101000a81549060ff02191690556005820160009055600682016000905550600701611f04565b5090565b90565b50805460018160011615610100020316600290046000825580601f10611f9f5750611fbe565b601f016020900490600052602060002090810190611fbd9190611ed9565b5b505600a165627a7a72305820ee60b36590260a6f4240141ce0a35d0186a78b0221515f3599eb74c00c130f790029",
  "source": "pragma solidity ^0.4.4;\n\n\ncontract PoBA {\n  address public owner;\n  address public signer;\n\n  constructor() public {\n    owner = msg.sender;\n    signer = owner;\n  }\n\n  struct BankAccount {\n    string accountNumber;\n    string bankName;\n    string identityNames;\n    uint256 attestationDate;\n    bool attestationFact;\n    bytes32 keccakIdentifier;\n    uint256 creationBlock;\n  }\n\n  struct User {\n    uint256 creationBlock;\n    BankAccount[] bankAccounts;\n  }\n\n  mapping (address => User) public users;\n\n  // Stats:\n  uint64 public totalUsers;\n  uint64 public totalBankAccounts;\n\n  // Events:\n  event LogBankAccountRegistered(address indexed wallet, bytes32 keccakIdentifier);\n  event LogBankAccountUnregistered(address indexed wallet, bytes32 keccakIdentifier);\n  event LogSignerChanged(address newSigner);\n\n  // Modifiers:\n  modifier onlyOwner() {\n    require(msg.sender == owner);\n    _;\n  }\n\n  modifier checkUserExists(address wallet) {\n    require(userExists(wallet));\n    _;\n  }\n\n  function signerIsValid(bytes32 data, uint8 v, bytes32 r, bytes32 s)\n  public constant returns (bool)\n  {\n    bytes memory prefix = \"\\x19Ethereum Signed Message:\\n32\";\n    bytes32 prefixed = keccak256(abi.encodePacked(prefix, data));\n    return (ecrecover(prefixed, v, r, s) == signer);\n  }\n\n  function userExists(address wallet)\n  public view returns (bool)\n  {\n    return (users[wallet].creationBlock > 0);\n  }\n\n  // Methods:\n  // set address that is used on server-side to calculate signatures\n  // and on contract-side to verify them\n  function setSigner(address newSigner) public onlyOwner {\n    signer = newSigner;\n    emit LogSignerChanged(newSigner);\n  }\n\n  function register(\n    string account,\n    string institution,\n    string names,\n    uint8 v, bytes32 r, bytes32 s) public {\n\n    require(bytes(account).length > 0);\n    require(bytes(institution).length > 0);\n    require(users[msg.sender].bankAccounts.length < 2**256-1);\n\n    if (!userExists(msg.sender)) {\n      // new user\n      users[msg.sender].creationBlock = block.number;\n      totalUsers += 1;\n    }\n\n    BankAccount memory ba;\n\n    ba.accountNumber = account;\n    ba.bankName = institution;\n    ba.identityNames = names;\n    ba.attestationDate = now;\n    ba.attestationFact = true;\n    ba.creationBlock = block.number;\n\n    bytes32 hash = keccak256(\n      abi.encodePacked(\n        msg.sender,\n        ba.accountNumber,\n        ba.bankName,\n        ba.identityNames\n      )\n    );\n    require(signerIsValid(hash, v, r, s));\n    ba.keccakIdentifier = hash;\n\n    users[msg.sender].bankAccounts.push(ba);\n    totalBankAccounts += 1;\n\n    emit LogBankAccountRegistered(msg.sender, ba.keccakIdentifier);\n  }\n\n  function unregisterBankAccount(string account, string institution, string names)\n  public checkUserExists(msg.sender)\n  {\n    bool found;\n    uint256 index;\n    (found, index) = userBankAccountByBankAccount(msg.sender, account, institution, names);\n    require(found);\n\n    // Store keccakIdentifier for logging purpose\n    bytes32 keccakIdentifier = users[msg.sender].bankAccounts[index].keccakIdentifier;\n\n    // Remove bank account from the list\n    uint256 length = users[msg.sender].bankAccounts.length;\n\n    if (index != length - 1) {\n      users[msg.sender].bankAccounts[index] = users[msg.sender].bankAccounts[length - 1];\n    }\n    users[msg.sender].bankAccounts.length--;\n    totalBankAccounts -= 1;\n\n    if (users[msg.sender].bankAccounts.length == 0) {\n      delete users[msg.sender];\n      totalUsers -= 1;\n    }\n\n    emit LogBankAccountUnregistered(msg.sender, keccakIdentifier);\n  }\n\n  // returns (found/not found, index if found/0 if not found, confirmed/not confirmed)\n  function userBankAccountByBankAccount(address wallet, string account, string institution, string names)\n  public view checkUserExists(wallet) returns(bool, uint256)\n  {\n    bytes32 keccakIdentifier = keccak256(\n      abi.encodePacked(\n        wallet,\n        account,\n        institution,\n        names\n      ));\n    return userBankAccountByKeccakIdentifier(wallet, keccakIdentifier);\n  }\n\n  // returns (found/not found, index if found/0 if not found, confirmed/not confirmed)\n  function userBankAccountByKeccakIdentifier(address wallet, bytes32 keccakIdentifier)\n  public view checkUserExists(wallet) returns(bool, uint256)\n  {\n    for (uint256 ai = 0; ai < users[wallet].bankAccounts.length; ai++) {\n      if (users[wallet].bankAccounts[ai].keccakIdentifier == keccakIdentifier) {\n        return (true, ai);\n      }\n    }\n    return (false, 0);\n  }\n\n  function accountsLength(address _address) public constant returns (uint256) {\n    return users[_address].bankAccounts.length;\n  }\n\n  function getBankAccounts(address _address, uint256 addressIndex) public constant\n  returns (string accountNumber, string bankName, string identityNames, uint256 attestationDate)\n  {\n    return (\n    users[_address].bankAccounts[addressIndex].accountNumber,\n    users[_address].bankAccounts[addressIndex].bankName,\n    users[_address].bankAccounts[addressIndex].identityNames,\n    users[_address].bankAccounts[addressIndex].attestationDate\n    );\n  }\n}\n",
  "sourcePath": "/home/topones1710/Work/altoros/poa-poba/blockchain/contracts/PoBA.sol",
  "compiler": {
    "name": "solc",
    "version": "0.4.24+commit.e67f0147.Emscripten.clang"
  },
  "schemaVersion": "2.0.0",
  "updatedAt": "2018-11-22T19:20:12.478Z"
}