{
  "contractName": "PoBA",
  "abi": [
    {
      "constant": true,
      "inputs": [],
      "name": "signer",
      "outputs": [
        {
          "name": "",
          "type": "address"
        }
      ],
      "payable": false,
      "stateMutability": "view",
      "type": "function"
    },
    {
      "constant": true,
      "inputs": [],
      "name": "totalBankAccounts",
      "outputs": [
        {
          "name": "",
          "type": "uint64"
        }
      ],
      "payable": false,
      "stateMutability": "view",
      "type": "function"
    },
    {
      "constant": true,
      "inputs": [],
      "name": "owner",
      "outputs": [
        {
          "name": "",
          "type": "address"
        }
      ],
      "payable": false,
      "stateMutability": "view",
      "type": "function"
    },
    {
      "constant": true,
      "inputs": [
        {
          "name": "",
          "type": "address"
        }
      ],
      "name": "users",
      "outputs": [
        {
          "name": "creationBlock",
          "type": "uint256"
        }
      ],
      "payable": false,
      "stateMutability": "view",
      "type": "function"
    },
    {
      "constant": true,
      "inputs": [],
      "name": "totalUsers",
      "outputs": [
        {
          "name": "",
          "type": "uint64"
        }
      ],
      "payable": false,
      "stateMutability": "view",
      "type": "function"
    },
    {
      "inputs": [],
      "payable": false,
      "stateMutability": "nonpayable",
      "type": "constructor"
    },
    {
      "anonymous": false,
      "inputs": [
        {
          "indexed": true,
          "name": "wallet",
          "type": "address"
        },
        {
          "indexed": false,
          "name": "keccakIdentifier",
          "type": "bytes32"
        }
      ],
      "name": "LogBankAccountRegistered",
      "type": "event"
    },
    {
      "anonymous": false,
      "inputs": [
        {
          "indexed": true,
          "name": "wallet",
          "type": "address"
        },
        {
          "indexed": false,
          "name": "keccakIdentifier",
          "type": "bytes32"
        }
      ],
      "name": "LogBankAccountUnregistered",
      "type": "event"
    },
    {
      "anonymous": false,
      "inputs": [
        {
          "indexed": false,
          "name": "newSigner",
          "type": "address"
        }
      ],
      "name": "LogSignerChanged",
      "type": "event"
    },
    {
      "constant": true,
      "inputs": [
        {
          "name": "data",
          "type": "bytes32"
        },
        {
          "name": "v",
          "type": "uint8"
        },
        {
          "name": "r",
          "type": "bytes32"
        },
        {
          "name": "s",
          "type": "bytes32"
        }
      ],
      "name": "signerIsValid",
      "outputs": [
        {
          "name": "",
          "type": "bool"
        }
      ],
      "payable": false,
      "stateMutability": "view",
      "type": "function"
    },
    {
      "constant": true,
      "inputs": [
        {
          "name": "wallet",
          "type": "address"
        }
      ],
      "name": "userExists",
      "outputs": [
        {
          "name": "",
          "type": "bool"
        }
      ],
      "payable": false,
      "stateMutability": "view",
      "type": "function"
    },
    {
      "constant": false,
      "inputs": [
        {
          "name": "newSigner",
          "type": "address"
        }
      ],
      "name": "setSigner",
      "outputs": [],
      "payable": false,
      "stateMutability": "nonpayable",
      "type": "function"
    },
    {
      "constant": false,
      "inputs": [
        {
          "name": "institution",
          "type": "string"
        },
        {
          "name": "names",
          "type": "string"
        },
        {
          "name": "v",
          "type": "uint8"
        },
        {
          "name": "r",
          "type": "bytes32"
        },
        {
          "name": "s",
          "type": "bytes32"
        }
      ],
      "name": "registerBankAccount",
      "outputs": [],
      "payable": false,
      "stateMutability": "nonpayable",
      "type": "function"
    },
    {
      "constant": false,
      "inputs": [
        {
          "name": "institution",
          "type": "string"
        },
        {
          "name": "names",
          "type": "string"
        }
      ],
      "name": "unregisterBankAccount",
      "outputs": [],
      "payable": false,
      "stateMutability": "nonpayable",
      "type": "function"
    },
    {
      "constant": true,
      "inputs": [
        {
          "name": "wallet",
          "type": "address"
        },
        {
          "name": "institution",
          "type": "string"
        },
        {
          "name": "names",
          "type": "string"
        }
      ],
      "name": "userBankAccountByBankAccount",
      "outputs": [
        {
          "name": "",
          "type": "bool"
        },
        {
          "name": "",
          "type": "uint256"
        }
      ],
      "payable": false,
      "stateMutability": "view",
      "type": "function"
    },
    {
      "constant": true,
      "inputs": [
        {
          "name": "wallet",
          "type": "address"
        },
        {
          "name": "keccakIdentifier",
          "type": "bytes32"
        }
      ],
      "name": "userBankAccountByKeccakIdentifier",
      "outputs": [
        {
          "name": "",
          "type": "bool"
        },
        {
          "name": "",
          "type": "uint256"
        }
      ],
      "payable": false,
      "stateMutability": "view",
      "type": "function"
    },
    {
      "constant": true,
      "inputs": [
        {
          "name": "_address",
          "type": "address"
        }
      ],
      "name": "userBankAccountsLength",
      "outputs": [
        {
          "name": "",
          "type": "uint256"
        }
      ],
      "payable": false,
      "stateMutability": "view",
      "type": "function"
    },
    {
      "constant": true,
      "inputs": [
        {
          "name": "_address",
          "type": "address"
        },
        {
          "name": "addressIndex",
          "type": "uint256"
        }
      ],
      "name": "getBankAccountsByAddress",
      "outputs": [
        {
          "name": "keccakIdentifier",
          "type": "bytes32"
        },
        {
          "name": "bankName",
          "type": "string"
        },
        {
          "name": "identityNames",
          "type": "string"
        },
        {
          "name": "attestationDate",
          "type": "uint256"
        }
      ],
      "payable": false,
      "stateMutability": "view",
      "type": "function"
    }
  ],
  "bytecode": "0x608060405234801561001057600080fd5b50336000806101000a81548173ffffffffffffffffffffffffffffffffffffffff021916908373ffffffffffffffffffffffffffffffffffffffff1602179055506000809054906101000a900473ffffffffffffffffffffffffffffffffffffffff16600160006101000a81548173ffffffffffffffffffffffffffffffffffffffff021916908373ffffffffffffffffffffffffffffffffffffffff160217905550611d0c806100c26000396000f3006080604052600436106100d0576000357c0100000000000000000000000000000000000000000000000000000000900463ffffffff1680630e666e49146100d5578063238ac933146101305780632f6f4f64146101875780634bf942f4146102755780635188a95c146102cc578063592b73241461037b5780636c19e783146103ba5780637d2401fe146103fd5780638da5cb5b146105455780639e123c371461059c578063a87430ba14610674578063bff1f9e1146106cb578063d956be101461070a578063fa31643c1461077c575b600080fd5b3480156100e157600080fd5b50610116600480360381019080803573ffffffffffffffffffffffffffffffffffffffff1690602001909291905050506107ec565b604051808215151515815260200191505060405180910390f35b34801561013c57600080fd5b5061014561083a565b604051808273ffffffffffffffffffffffffffffffffffffffff1673ffffffffffffffffffffffffffffffffffffffff16815260200191505060405180910390f35b34801561019357600080fd5b50610254600480360381019080803573ffffffffffffffffffffffffffffffffffffffff169060200190929190803590602001908201803590602001908080601f0160208091040260200160405190810160405280939291908181526020018383808284378201915050505050509192919290803590602001908201803590602001908080601f0160208091040260200160405190810160405280939291908181526020018383808284378201915050505050509192919290505050610860565b60405180831515151581526020018281526020019250505060405180910390f35b34801561028157600080fd5b506102b6600480360381019080803573ffffffffffffffffffffffffffffffffffffffff1690602001909291905050506109fb565b6040518082815260200191505060405180910390f35b3480156102d857600080fd5b50610379600480360381019080803590602001908201803590602001908080601f0160208091040260200160405190810160405280939291908181526020018383808284378201915050505050509192919290803590602001908201803590602001908080601f0160208091040260200160405190810160405280939291908181526020018383808284378201915050505050509192919290505050610a4a565b005b34801561038757600080fd5b50610390610e81565b604051808267ffffffffffffffff1667ffffffffffffffff16815260200191505060405180910390f35b3480156103c657600080fd5b506103fb600480360381019080803573ffffffffffffffffffffffffffffffffffffffff169060200190929190505050610e9b565b005b34801561040957600080fd5b50610448600480360381019080803573ffffffffffffffffffffffffffffffffffffffff16906020019092919080359060200190929190505050610f9d565b6040518085600019166000191681526020018060200180602001848152602001838103835286818151815260200191508051906020019080838360005b838110156104a0578082015181840152602081019050610485565b50505050905090810190601f1680156104cd5780820380516001836020036101000a031916815260200191505b50838103825285818151815260200191508051906020019080838360005b838110156105065780820151818401526020810190506104eb565b50505050905090810190601f1680156105335780820380516001836020036101000a031916815260200191505b50965050505050505060405180910390f35b34801561055157600080fd5b5061055a61126f565b604051808273ffffffffffffffffffffffffffffffffffffffff1673ffffffffffffffffffffffffffffffffffffffff16815260200191505060405180910390f35b3480156105a857600080fd5b50610672600480360381019080803590602001908201803590602001908080601f0160208091040260200160405190810160405280939291908181526020018383808284378201915050505050509192919290803590602001908201803590602001908080601f0160208091040260200160405190810160405280939291908181526020018383808284378201915050505050509192919290803560ff16906020019092919080356000191690602001909291908035600019169060200190929190505050611294565b005b34801561068057600080fd5b506106b5600480360381019080803573ffffffffffffffffffffffffffffffffffffffff169060200190929190505050611732565b6040518082815260200191505060405180910390f35b3480156106d757600080fd5b506106e0611750565b604051808267ffffffffffffffff1667ffffffffffffffff16815260200191505060405180910390f35b34801561071657600080fd5b506107626004803603810190808035600019169060200190929190803560ff1690602001909291908035600019169060200190929190803560001916906020019092919050505061176a565b604051808215151515815260200191505060405180910390f35b34801561078857600080fd5b506107cb600480360381019080803573ffffffffffffffffffffffffffffffffffffffff1690602001909291908035600019169060200190929190505050611966565b60405180831515151581526020018281526020019250505060405180910390f35b600080600260008473ffffffffffffffffffffffffffffffffffffffff1673ffffffffffffffffffffffffffffffffffffffff16815260200190815260200160002060000154119050919050565b600160009054906101000a900473ffffffffffffffffffffffffffffffffffffffff1681565b60008060008561086f816107ec565b151561087a57600080fd5b868686604051602001808473ffffffffffffffffffffffffffffffffffffffff1673ffffffffffffffffffffffffffffffffffffffff166c0100000000000000000000000002815260140183805190602001908083835b6020831015156108f657805182526020820191506020810190506020830392506108d1565b6001836020036101000a03801982511681845116808217855250505050505090500182805190602001908083835b6020831015156109495780518252602082019150602081019050602083039250610924565b6001836020036101000a03801982511681845116808217855250505050505090500193505050506040516020818303038152906040526040518082805190602001908083835b6020831015156109b4578051825260208201915060208101905060208303925061098f565b6001836020036101000a038019825116818451168082178552505050505050905001915050604051809103902091506109ed8783611966565b935093505050935093915050565b6000600260008373ffffffffffffffffffffffffffffffffffffffff1673ffffffffffffffffffffffffffffffffffffffff168152602001908152602001600020600101805490509050919050565b60008060008033610a5a816107ec565b1515610a6557600080fd5b610a70338888610860565b8095508196505050841515610a8457600080fd5b600260003373ffffffffffffffffffffffffffffffffffffffff1673ffffffffffffffffffffffffffffffffffffffff16815260200190815260200160002060010184815481101515610ad357fe5b9060005260206000209060060201600401549250600260003373ffffffffffffffffffffffffffffffffffffffff1673ffffffffffffffffffffffffffffffffffffffff1681526020019081526020016000206001018054905091506001820384141515610c9d57600260003373ffffffffffffffffffffffffffffffffffffffff1673ffffffffffffffffffffffffffffffffffffffff16815260200190815260200160002060010160018303815481101515610b8d57fe5b9060005260206000209060060201600260003373ffffffffffffffffffffffffffffffffffffffff1673ffffffffffffffffffffffffffffffffffffffff16815260200190815260200160002060010185815481101515610bea57fe5b906000526020600020906006020160008201816000019080546001816001161561010002031660029004610c1f929190611a6f565b5060018201816001019080546001816001161561010002031660029004610c47929190611a6f565b50600282015481600201556003820160009054906101000a900460ff168160030160006101000a81548160ff02191690831515021790555060048201548160040190600019169055600582015481600501559050505b600260003373ffffffffffffffffffffffffffffffffffffffff1673ffffffffffffffffffffffffffffffffffffffff168152602001908152602001600020600101805480919060019003610cf29190611af6565b506001600360088282829054906101000a900467ffffffffffffffff160392506101000a81548167ffffffffffffffff021916908367ffffffffffffffff1602179055506000600260003373ffffffffffffffffffffffffffffffffffffffff1673ffffffffffffffffffffffffffffffffffffffff168152602001908152602001600020600101805490501415610e2257600260003373ffffffffffffffffffffffffffffffffffffffff1673ffffffffffffffffffffffffffffffffffffffff168152602001908152602001600020600080820160009055600182016000610ddc9190611b28565b50506001600360008282829054906101000a900467ffffffffffffffff160392506101000a81548167ffffffffffffffff021916908367ffffffffffffffff1602179055505b3373ffffffffffffffffffffffffffffffffffffffff167f66533e921f088138d3807a89c7182f77f17b2b648ff59fd66be28f364e44204a8460405180826000191660001916815260200191505060405180910390a250505050505050565b600360089054906101000a900467ffffffffffffffff1681565b6000809054906101000a900473ffffffffffffffffffffffffffffffffffffffff1673ffffffffffffffffffffffffffffffffffffffff163373ffffffffffffffffffffffffffffffffffffffff16141515610ef657600080fd5b80600160006101000a81548173ffffffffffffffffffffffffffffffffffffffff021916908373ffffffffffffffffffffffffffffffffffffffff1602179055507fee87a28570c895f7da676d522308fff544b84e34ac47fcb36b53f5ef848e5e3281604051808273ffffffffffffffffffffffffffffffffffffffff1673ffffffffffffffffffffffffffffffffffffffff16815260200191505060405180910390a150565b60006060806000600260008773ffffffffffffffffffffffffffffffffffffffff1673ffffffffffffffffffffffffffffffffffffffff16815260200190815260200160002060010185815481101515610ff357fe5b906000526020600020906006020160040154600260008873ffffffffffffffffffffffffffffffffffffffff1673ffffffffffffffffffffffffffffffffffffffff1681526020019081526020016000206001018681548110151561105457fe5b9060005260206000209060060201600001600260008973ffffffffffffffffffffffffffffffffffffffff1673ffffffffffffffffffffffffffffffffffffffff168152602001908152602001600020600101878154811015156110b457fe5b9060005260206000209060060201600101600260008a73ffffffffffffffffffffffffffffffffffffffff1673ffffffffffffffffffffffffffffffffffffffff1681526020019081526020016000206001018881548110151561111457fe5b906000526020600020906006020160020154828054600181600116156101000203166002900480601f0160208091040260200160405190810160405280929190818152602001828054600181600116156101000203166002900480156111bb5780601f10611190576101008083540402835291602001916111bb565b820191906000526020600020905b81548152906001019060200180831161119e57829003601f168201915b50505050509250818054600181600116156101000203166002900480601f0160208091040260200160405190810160405280929190818152602001828054600181600116156101000203166002900480156112575780601f1061122c57610100808354040283529160200191611257565b820191906000526020600020905b81548152906001019060200180831161123a57829003601f168201915b50505050509150935093509350935092959194509250565b6000809054906101000a900473ffffffffffffffffffffffffffffffffffffffff1681565b61129c611b4c565b60008087511115156112ad57600080fd5b600086511115156112bd57600080fd5b7fffffffffffffffffffffffffffffffffffffffffffffffffffffffffffffffff600260003373ffffffffffffffffffffffffffffffffffffffff1673ffffffffffffffffffffffffffffffffffffffff1681526020019081526020016000206001018054905010151561133057600080fd5b611339336107ec565b15156113ca5743600260003373ffffffffffffffffffffffffffffffffffffffff1673ffffffffffffffffffffffffffffffffffffffff168152602001908152602001600020600001819055506001600360008282829054906101000a900467ffffffffffffffff160192506101000a81548167ffffffffffffffff021916908367ffffffffffffffff1602179055505b868260000181905250858260200181905250428260400181815250506001826060019015159081151581525050438260a00181815250503382600001518360200151604051602001808473ffffffffffffffffffffffffffffffffffffffff1673ffffffffffffffffffffffffffffffffffffffff166c0100000000000000000000000002815260140183805190602001908083835b6020831015156114855780518252602082019150602081019050602083039250611460565b6001836020036101000a03801982511681845116808217855250505050505090500182805190602001908083835b6020831015156114d857805182526020820191506020810190506020830392506114b3565b6001836020036101000a03801982511681845116808217855250505050505090500193505050506040516020818303038152906040526040518082805190602001908083835b602083101515611543578051825260208201915060208101905060208303925061151e565b6001836020036101000a0380198251168184511680821785525050505050509050019150506040518091039020905061157e8186868661176a565b151561158957600080fd5b8082608001906000191690816000191681525050600260003373ffffffffffffffffffffffffffffffffffffffff1673ffffffffffffffffffffffffffffffffffffffff16815260200190815260200160002060010182908060018154018082558091505090600182039060005260206000209060060201600090919290919091506000820151816000019080519060200190611627929190611b88565b506020820151816001019080519060200190611644929190611b88565b506040820151816002015560608201518160030160006101000a81548160ff0219169083151502179055506080820151816004019060001916905560a082015181600501555050506001600360088282829054906101000a900467ffffffffffffffff160192506101000a81548167ffffffffffffffff021916908367ffffffffffffffff1602179055503373ffffffffffffffffffffffffffffffffffffffff167f2ded3da8fc0df7b3c85954545d0dfca5f7d03f5e6d96853c182e6ca7229262db836080015160405180826000191660001916815260200191505060405180910390a250505050505050565b60026020528060005260406000206000915090508060000154905081565b600360009054906101000a900467ffffffffffffffff1681565b6000606060006040805190810160405280601c81526020017f19457468657265756d205369676e6564204d6573736167653a0a333200000000815250915081876040516020018083805190602001908083835b6020831015156117e257805182526020820191506020810190506020830392506117bd565b6001836020036101000a0380198251168184511680821785525050505050509050018260001916600019168152602001925050506040516020818303038152906040526040518082805190602001908083835b60208310151561185a5780518252602082019150602081019050602083039250611835565b6001836020036101000a03801982511681845116808217855250505050505090500191505060405180910390209050600160009054906101000a900473ffffffffffffffffffffffffffffffffffffffff1673ffffffffffffffffffffffffffffffffffffffff16600182888888604051600081526020016040526040518085600019166000191681526020018460ff1660ff1681526020018360001916600019168152602001826000191660001916815260200194505050505060206040516020810390808403906000865af1158015611939573d6000803e3d6000fd5b5050506020604051035173ffffffffffffffffffffffffffffffffffffffff161492505050949350505050565b600080600084611975816107ec565b151561198057600080fd5b600091505b600260008773ffffffffffffffffffffffffffffffffffffffff1673ffffffffffffffffffffffffffffffffffffffff16815260200190815260200160002060010180549050821015611a5b578460001916600260008873ffffffffffffffffffffffffffffffffffffffff1673ffffffffffffffffffffffffffffffffffffffff16815260200190815260200160002060010183815481101515611a2657fe5b906000526020600020906006020160040154600019161415611a4e5760018293509350611a66565b8180600101925050611985565b600080809050935093505b50509250929050565b828054600181600116156101000203166002900490600052602060002090601f016020900481019282601f10611aa85780548555611ae5565b82800160010185558215611ae557600052602060002091601f016020900482015b82811115611ae4578254825591600101919060010190611ac9565b5b509050611af29190611c08565b5090565b815481835581811115611b2357600602816006028360005260206000209182019101611b229190611c2d565b5b505050565b5080546000825560060290600052602060002090810190611b499190611c2d565b50565b60c06040519081016040528060608152602001606081526020016000815260200160001515815260200160008019168152602001600081525090565b828054600181600116156101000203166002900490600052602060002090601f016020900481019282601f10611bc957805160ff1916838001178555611bf7565b82800160010185558215611bf7579182015b82811115611bf6578251825591602001919060010190611bdb565b5b509050611c049190611c08565b5090565b611c2a91905b80821115611c26576000816000905550600101611c0e565b5090565b90565b611c9591905b80821115611c915760008082016000611c4c9190611c98565b600182016000611c5c9190611c98565b60028201600090556003820160006101000a81549060ff02191690556004820160009055600582016000905550600601611c33565b5090565b90565b50805460018160011615610100020316600290046000825580601f10611cbe5750611cdd565b601f016020900490600052602060002090810190611cdc9190611c08565b5b505600a165627a7a7230582018c586103432b81aeec820838ae03372dfd41bf518272e5227e571688295b2830029",
  "source": "pragma solidity ^0.4.4;\n\n\ncontract PoBA {\n  address public owner;\n  address public signer;\n\n  constructor() public {\n    owner = msg.sender;\n    signer = owner;\n  }\n\n  struct BankAccount {\n    string bankName;\n    string identityNames;\n    uint256 attestationDate;\n    bool attestationFact;\n    bytes32 keccakIdentifier;\n    uint256 creationBlock;\n  }\n\n  struct User {\n    uint256 creationBlock;\n    BankAccount[] bankAccounts;\n  }\n\n  mapping (address => User) public users;\n\n  // Stats:\n  uint64 public totalUsers;\n  uint64 public totalBankAccounts;\n\n  // Events:\n  event LogBankAccountRegistered(address indexed wallet, bytes32 keccakIdentifier);\n  event LogBankAccountUnregistered(address indexed wallet, bytes32 keccakIdentifier);\n  event LogSignerChanged(address newSigner);\n\n  // Modifiers:\n  modifier onlyOwner() {\n    require(msg.sender == owner);\n    _;\n  }\n\n  modifier checkUserExists(address wallet) {\n    require(userExists(wallet));\n    _;\n  }\n\n  function signerIsValid(bytes32 data, uint8 v, bytes32 r, bytes32 s)\n  public constant returns (bool)\n  {\n    bytes memory prefix = \"\\x19Ethereum Signed Message:\\n32\";\n    bytes32 prefixed = keccak256(abi.encodePacked(prefix, data));\n    return (ecrecover(prefixed, v, r, s) == signer);\n  }\n\n  function userExists(address wallet)\n  public view returns (bool)\n  {\n    return (users[wallet].creationBlock > 0);\n  }\n\n  // Methods:\n  // set address that is used on server-side to calculate signatures\n  // and on contract-side to verify them\n  function setSigner(address newSigner) public onlyOwner {\n    signer = newSigner;\n    emit LogSignerChanged(newSigner);\n  }\n\n  function registerBankAccount(\n    string institution,\n    string names,\n    uint8 v, bytes32 r, bytes32 s) public {\n\n    require(bytes(institution).length > 0);\n    require(bytes(names).length > 0);\n    require(users[msg.sender].bankAccounts.length < 2**256-1);\n\n    if (!userExists(msg.sender)) {\n      // new user\n      users[msg.sender].creationBlock = block.number;\n      totalUsers += 1;\n    }\n\n    BankAccount memory ba;\n\n    ba.bankName = institution;\n    ba.identityNames = names;\n    ba.attestationDate = now;\n    ba.attestationFact = true;\n    ba.creationBlock = block.number;\n\n    bytes32 hash = keccak256(abi.encodePacked(msg.sender, ba.bankName, ba.identityNames));\n    require(signerIsValid(hash, v, r, s));\n    ba.keccakIdentifier = hash;\n\n    users[msg.sender].bankAccounts.push(ba);\n    totalBankAccounts += 1;\n\n    emit LogBankAccountRegistered(msg.sender, ba.keccakIdentifier);\n  }\n\n  function unregisterBankAccount(string institution, string names)\n  public checkUserExists(msg.sender)\n  {\n    bool found;\n    uint256 index;\n    (found, index) = userBankAccountByBankAccount(msg.sender, institution, names);\n    require(found);\n\n    // Store keccakIdentifier for logging purpose\n    bytes32 keccakIdentifier = users[msg.sender].bankAccounts[index].keccakIdentifier;\n\n    // Remove bank account from the list\n    uint256 length = users[msg.sender].bankAccounts.length;\n\n    if (index != length - 1) {\n      users[msg.sender].bankAccounts[index] = users[msg.sender].bankAccounts[length - 1];\n    }\n    users[msg.sender].bankAccounts.length--;\n    totalBankAccounts -= 1;\n\n    if (users[msg.sender].bankAccounts.length == 0) {\n      delete users[msg.sender];\n      totalUsers -= 1;\n    }\n\n    emit LogBankAccountUnregistered(msg.sender, keccakIdentifier);\n  }\n\n  // returns (found/not found, index if found/0 if not found, confirmed/not confirmed)\n  function userBankAccountByBankAccount(address wallet, string institution, string names)\n  public view checkUserExists(wallet) returns(bool, uint256)\n  {\n    bytes32 keccakIdentifier = keccak256(abi.encodePacked(wallet, institution, names));\n    return userBankAccountByKeccakIdentifier(wallet, keccakIdentifier);\n  }\n\n  // returns (found/not found, index if found/0 if not found, confirmed/not confirmed)\n  function userBankAccountByKeccakIdentifier(address wallet, bytes32 keccakIdentifier)\n  public view checkUserExists(wallet) returns(bool, uint256)\n  {\n    for (uint256 ai = 0; ai < users[wallet].bankAccounts.length; ai++) {\n      if (users[wallet].bankAccounts[ai].keccakIdentifier == keccakIdentifier) {\n        return (true, ai);\n      }\n    }\n    return (false, 0);\n  }\n\n  function userBankAccountsLength(address _address) public constant returns (uint256) {\n    return users[_address].bankAccounts.length;\n  }\n\n  function getBankAccountsByAddress(address _address, uint256 addressIndex) public constant\n  returns (bytes32 keccakIdentifier, string bankName, string identityNames, uint256 attestationDate)\n  {\n    return (\n      users[_address].bankAccounts[addressIndex].keccakIdentifier,\n      users[_address].bankAccounts[addressIndex].bankName,\n      users[_address].bankAccounts[addressIndex].identityNames,\n      users[_address].bankAccounts[addressIndex].attestationDate\n    );\n  }\n}\n",
  "sourcePath": "/home/topones8/Work/altoros/poa-poba/blockchain/contracts/PoBA.sol",
  "compiler": {
    "name": "solc",
    "version": "0.4.24+commit.e67f0147.Emscripten.clang"
  },
  "schemaVersion": "2.0.0",
  "updatedAt": "2018-12-06T19:12:21.581Z"
}