{
  "contractName": "PoBA",
  "abi": [
    {
      "constant": true,
      "inputs": [],
      "name": "executionNonce",
      "outputs": [
        {
          "name": "",
          "type": "uint256"
        }
      ],
      "payable": false,
      "stateMutability": "view",
      "type": "function"
    },
    {
      "constant": true,
      "inputs": [
        {
          "name": "_key",
          "type": "bytes32"
        }
      ],
      "name": "getKeyPurpose",
      "outputs": [
        {
          "name": "purpose",
          "type": "uint256"
        }
      ],
      "payable": false,
      "stateMutability": "view",
      "type": "function"
    },
    {
      "constant": true,
      "inputs": [],
      "name": "MANAGEMENT_KEY",
      "outputs": [
        {
          "name": "",
          "type": "uint256"
        }
      ],
      "payable": false,
      "stateMutability": "view",
      "type": "function"
    },
    {
      "constant": true,
      "inputs": [
        {
          "name": "_key",
          "type": "bytes32"
        }
      ],
      "name": "getKey",
      "outputs": [
        {
          "name": "purpose",
          "type": "uint256"
        },
        {
          "name": "keyType",
          "type": "uint256"
        },
        {
          "name": "key",
          "type": "bytes32"
        }
      ],
      "payable": false,
      "stateMutability": "view",
      "type": "function"
    },
    {
      "constant": false,
      "inputs": [
        {
          "name": "_key",
          "type": "bytes32"
        },
        {
          "name": "_purpose",
          "type": "uint256"
        },
        {
          "name": "_type",
          "type": "uint256"
        }
      ],
      "name": "addKey",
      "outputs": [
        {
          "name": "success",
          "type": "bool"
        }
      ],
      "payable": false,
      "stateMutability": "nonpayable",
      "type": "function"
    },
    {
      "constant": true,
      "inputs": [],
      "name": "signer",
      "outputs": [
        {
          "name": "",
          "type": "address"
        }
      ],
      "payable": false,
      "stateMutability": "view",
      "type": "function"
    },
    {
      "constant": true,
      "inputs": [],
      "name": "totalBankAccounts",
      "outputs": [
        {
          "name": "",
          "type": "uint64"
        }
      ],
      "payable": false,
      "stateMutability": "view",
      "type": "function"
    },
    {
      "constant": true,
      "inputs": [
        {
          "name": "",
          "type": "uint256"
        },
        {
          "name": "",
          "type": "uint256"
        }
      ],
      "name": "keysByPurpose",
      "outputs": [
        {
          "name": "",
          "type": "bytes32"
        }
      ],
      "payable": false,
      "stateMutability": "view",
      "type": "function"
    },
    {
      "constant": false,
      "inputs": [
        {
          "name": "_id",
          "type": "uint256"
        },
        {
          "name": "_approve",
          "type": "bool"
        }
      ],
      "name": "approve",
      "outputs": [
        {
          "name": "success",
          "type": "bool"
        }
      ],
      "payable": false,
      "stateMutability": "nonpayable",
      "type": "function"
    },
    {
      "constant": true,
      "inputs": [],
      "name": "ACTION_KEY",
      "outputs": [
        {
          "name": "",
          "type": "uint256"
        }
      ],
      "payable": false,
      "stateMutability": "view",
      "type": "function"
    },
    {
      "constant": false,
      "inputs": [
        {
          "name": "_key",
          "type": "bytes32"
        }
      ],
      "name": "removeKey",
      "outputs": [
        {
          "name": "success",
          "type": "bool"
        }
      ],
      "payable": false,
      "stateMutability": "nonpayable",
      "type": "function"
    },
    {
      "constant": true,
      "inputs": [],
      "name": "owner",
      "outputs": [
        {
          "name": "",
          "type": "address"
        }
      ],
      "payable": false,
      "stateMutability": "view",
      "type": "function"
    },
    {
      "constant": true,
      "inputs": [
        {
          "name": "_purpose",
          "type": "uint256"
        }
      ],
      "name": "getKeysByPurpose",
      "outputs": [
        {
          "name": "_keys",
          "type": "bytes32[]"
        }
      ],
      "payable": false,
      "stateMutability": "view",
      "type": "function"
    },
    {
      "constant": true,
      "inputs": [],
      "name": "ENCRYPTION_KEY",
      "outputs": [
        {
          "name": "",
          "type": "uint256"
        }
      ],
      "payable": false,
      "stateMutability": "view",
      "type": "function"
    },
    {
      "constant": true,
      "inputs": [
        {
          "name": "",
          "type": "address"
        }
      ],
      "name": "users",
      "outputs": [
        {
          "name": "creationBlock",
          "type": "uint256"
        }
      ],
      "payable": false,
      "stateMutability": "view",
      "type": "function"
    },
    {
      "constant": false,
      "inputs": [
        {
          "name": "_to",
          "type": "address"
        },
        {
          "name": "_value",
          "type": "uint256"
        },
        {
          "name": "_data",
          "type": "bytes"
        }
      ],
      "name": "execute",
      "outputs": [
        {
          "name": "executionId",
          "type": "uint256"
        }
      ],
      "payable": false,
      "stateMutability": "nonpayable",
      "type": "function"
    },
    {
      "constant": true,
      "inputs": [],
      "name": "totalUsers",
      "outputs": [
        {
          "name": "",
          "type": "uint64"
        }
      ],
      "payable": false,
      "stateMutability": "view",
      "type": "function"
    },
    {
      "constant": true,
      "inputs": [],
      "name": "CLAIM_SIGNER_KEY",
      "outputs": [
        {
          "name": "",
          "type": "uint256"
        }
      ],
      "payable": false,
      "stateMutability": "view",
      "type": "function"
    },
    {
      "constant": true,
      "inputs": [
        {
          "name": "_key",
          "type": "bytes32"
        },
        {
          "name": "_purpose",
          "type": "uint256"
        }
      ],
      "name": "keyHasPurpose",
      "outputs": [
        {
          "name": "result",
          "type": "bool"
        }
      ],
      "payable": false,
      "stateMutability": "view",
      "type": "function"
    },
    {
      "constant": true,
      "inputs": [
        {
          "name": "",
          "type": "bytes32"
        }
      ],
      "name": "keys",
      "outputs": [
        {
          "name": "purpose",
          "type": "uint256"
        },
        {
          "name": "keyType",
          "type": "uint256"
        },
        {
          "name": "key",
          "type": "bytes32"
        }
      ],
      "payable": false,
      "stateMutability": "view",
      "type": "function"
    },
    {
      "constant": true,
      "inputs": [
        {
          "name": "",
          "type": "uint256"
        }
      ],
      "name": "executions",
      "outputs": [
        {
          "name": "to",
          "type": "address"
        },
        {
          "name": "value",
          "type": "uint256"
        },
        {
          "name": "data",
          "type": "bytes"
        },
        {
          "name": "approved",
          "type": "bool"
        },
        {
          "name": "executed",
          "type": "bool"
        }
      ],
      "payable": false,
      "stateMutability": "view",
      "type": "function"
    },
    {
      "inputs": [],
      "payable": false,
      "stateMutability": "nonpayable",
      "type": "constructor"
    },
    {
      "anonymous": false,
      "inputs": [
        {
          "indexed": true,
          "name": "wallet",
          "type": "address"
        },
        {
          "indexed": false,
          "name": "keccakIdentifier",
          "type": "bytes32"
        }
      ],
      "name": "LogBankAccountRegistered",
      "type": "event"
    },
    {
      "anonymous": false,
      "inputs": [
        {
          "indexed": true,
          "name": "wallet",
          "type": "address"
        },
        {
          "indexed": false,
          "name": "keccakIdentifier",
          "type": "bytes32"
        }
      ],
      "name": "LogBankAccountUnregistered",
      "type": "event"
    },
    {
      "anonymous": false,
      "inputs": [
        {
          "indexed": false,
          "name": "newSigner",
          "type": "address"
        }
      ],
      "name": "LogSignerChanged",
      "type": "event"
    },
    {
      "anonymous": false,
      "inputs": [
        {
          "indexed": true,
          "name": "executionId",
          "type": "uint256"
        },
        {
          "indexed": true,
          "name": "to",
          "type": "address"
        },
        {
          "indexed": true,
          "name": "value",
          "type": "uint256"
        },
        {
          "indexed": false,
          "name": "data",
          "type": "bytes"
        }
      ],
      "name": "ExecutionFailed",
      "type": "event"
    },
    {
      "anonymous": false,
      "inputs": [
        {
          "indexed": true,
          "name": "key",
          "type": "bytes32"
        },
        {
          "indexed": true,
          "name": "purpose",
          "type": "uint256"
        },
        {
          "indexed": true,
          "name": "keyType",
          "type": "uint256"
        }
      ],
      "name": "KeyAdded",
      "type": "event"
    },
    {
      "anonymous": false,
      "inputs": [
        {
          "indexed": true,
          "name": "key",
          "type": "bytes32"
        },
        {
          "indexed": true,
          "name": "purpose",
          "type": "uint256"
        },
        {
          "indexed": true,
          "name": "keyType",
          "type": "uint256"
        }
      ],
      "name": "KeyRemoved",
      "type": "event"
    },
    {
      "anonymous": false,
      "inputs": [
        {
          "indexed": true,
          "name": "executionId",
          "type": "uint256"
        },
        {
          "indexed": true,
          "name": "to",
          "type": "address"
        },
        {
          "indexed": true,
          "name": "value",
          "type": "uint256"
        },
        {
          "indexed": false,
          "name": "data",
          "type": "bytes"
        }
      ],
      "name": "ExecutionRequested",
      "type": "event"
    },
    {
      "anonymous": false,
      "inputs": [
        {
          "indexed": true,
          "name": "executionId",
          "type": "uint256"
        },
        {
          "indexed": true,
          "name": "to",
          "type": "address"
        },
        {
          "indexed": true,
          "name": "value",
          "type": "uint256"
        },
        {
          "indexed": false,
          "name": "data",
          "type": "bytes"
        }
      ],
      "name": "Executed",
      "type": "event"
    },
    {
      "anonymous": false,
      "inputs": [
        {
          "indexed": true,
          "name": "executionId",
          "type": "uint256"
        },
        {
          "indexed": false,
          "name": "approved",
          "type": "bool"
        }
      ],
      "name": "Approved",
      "type": "event"
    },
    {
      "constant": true,
      "inputs": [
        {
          "name": "data",
          "type": "bytes32"
        },
        {
          "name": "v",
          "type": "uint8"
        },
        {
          "name": "r",
          "type": "bytes32"
        },
        {
          "name": "s",
          "type": "bytes32"
        }
      ],
      "name": "signerIsValid",
      "outputs": [
        {
          "name": "",
          "type": "bool"
        }
      ],
      "payable": false,
      "stateMutability": "view",
      "type": "function"
    },
    {
      "constant": true,
      "inputs": [
        {
          "name": "wallet",
          "type": "address"
        }
      ],
      "name": "userExists",
      "outputs": [
        {
          "name": "",
          "type": "bool"
        }
      ],
      "payable": false,
      "stateMutability": "view",
      "type": "function"
    },
    {
      "constant": false,
      "inputs": [
        {
          "name": "newSigner",
          "type": "address"
        }
      ],
      "name": "setSigner",
      "outputs": [],
      "payable": false,
      "stateMutability": "nonpayable",
      "type": "function"
    },
    {
      "constant": false,
      "inputs": [
        {
          "name": "institution",
          "type": "string"
        },
        {
          "name": "names",
          "type": "string"
        },
        {
          "name": "v",
          "type": "uint8"
        },
        {
          "name": "r",
          "type": "bytes32"
        },
        {
          "name": "s",
          "type": "bytes32"
        }
      ],
      "name": "registerBankAccount",
      "outputs": [],
      "payable": false,
      "stateMutability": "nonpayable",
      "type": "function"
    },
    {
      "constant": false,
      "inputs": [
        {
          "name": "institution",
          "type": "string"
        },
        {
          "name": "names",
          "type": "string"
        }
      ],
      "name": "unregisterBankAccount",
      "outputs": [],
      "payable": false,
      "stateMutability": "nonpayable",
      "type": "function"
    },
    {
      "constant": true,
      "inputs": [
        {
          "name": "wallet",
          "type": "address"
        },
        {
          "name": "institution",
          "type": "string"
        },
        {
          "name": "names",
          "type": "string"
        }
      ],
      "name": "userBankAccountByBankAccount",
      "outputs": [
        {
          "name": "",
          "type": "bool"
        },
        {
          "name": "",
          "type": "uint256"
        }
      ],
      "payable": false,
      "stateMutability": "view",
      "type": "function"
    },
    {
      "constant": true,
      "inputs": [
        {
          "name": "wallet",
          "type": "address"
        },
        {
          "name": "keccakIdentifier",
          "type": "bytes32"
        }
      ],
      "name": "userBankAccountByKeccakIdentifier",
      "outputs": [
        {
          "name": "",
          "type": "bool"
        },
        {
          "name": "",
          "type": "uint256"
        }
      ],
      "payable": false,
      "stateMutability": "view",
      "type": "function"
    },
    {
      "constant": true,
      "inputs": [
        {
          "name": "_address",
          "type": "address"
        }
      ],
      "name": "userBankAccountsLength",
      "outputs": [
        {
          "name": "",
          "type": "uint256"
        }
      ],
      "payable": false,
      "stateMutability": "view",
      "type": "function"
    },
    {
      "constant": true,
      "inputs": [
        {
          "name": "_address",
          "type": "address"
        },
        {
          "name": "addressIndex",
          "type": "uint256"
        }
      ],
      "name": "getBankAccountsByAddress",
      "outputs": [
        {
          "name": "keccakIdentifier",
          "type": "bytes32"
        },
        {
          "name": "bankName",
          "type": "string"
        },
        {
          "name": "identityNames",
          "type": "string"
        },
        {
          "name": "attestationDate",
          "type": "uint256"
        }
      ],
      "payable": false,
      "stateMutability": "view",
      "type": "function"
    }
  ],
  "bytecode": "0x608060405234801561001057600080fd5b50600033604051808273ffffffffffffffffffffffffffffffffffffffff1673ffffffffffffffffffffffffffffffffffffffff166c0100000000000000000000000002815260140191505060405180910390209050806001600083600019166000191681526020019081526020016000206002018160001916905550600180600083600019166000191681526020019081526020016000206000018190555060018060008360001916600019168152602001908152602001600020600101819055506002600060018152602001908152602001600020819080600181540180825580915050906001820390600052602060002001600090919290919091509060001916905550600180600083600019166000191681526020019081526020016000206000015482600019167f480000bb1edad8ca1470381cc334b1917fbd51c6531f3a623ea8e0ec7e38a6e960405160405180910390a45033600460006101000a81548173ffffffffffffffffffffffffffffffffffffffff021916908373ffffffffffffffffffffffffffffffffffffffff160217905550600460009054906101000a900473ffffffffffffffffffffffffffffffffffffffff16600560006101000a81548173ffffffffffffffffffffffffffffffffffffffff021916908373ffffffffffffffffffffffffffffffffffffffff1602179055506133e18061021c6000396000f300608060405260043610610180576000357c0100000000000000000000000000000000000000000000000000000000900463ffffffff16806301bd43ef14610185578063032c1a8a146101b0578063058b316c146101f55780630e666e491461022057806312aaac701461027b5780631d381240146102d6578063238ac933146103335780632f6f4f641461038a5780634bf942f4146104785780635188a95c146104cf578063592b73241461057e5780636a19c073146105bd5780636c19e78314610610578063747442d31461065357806375e5598c146106a45780637d2401fe146106cf578063862642f5146108175780638da5cb5b146108605780639010f726146108b75780639e123c37146109395780639e140cc814610a11578063a87430ba14610a3c578063b61d27f614610a93578063bff1f9e114610b3a578063c670218714610b79578063d202158d14610ba4578063d956be1014610bf7578063dde5b7a114610c69578063f76c922914610cc4578063fa31643c14610dba575b600080fd5b34801561019157600080fd5b5061019a610e2a565b6040518082815260200191505060405180910390f35b3480156101bc57600080fd5b506101df6004803603810190808035600019169060200190929190505050610e30565b6040518082815260200191505060405180910390f35b34801561020157600080fd5b5061020a610e58565b6040518082815260200191505060405180910390f35b34801561022c57600080fd5b50610261600480360381019080803573ffffffffffffffffffffffffffffffffffffffff169060200190929190505050610e5d565b604051808215151515815260200191505060405180910390f35b34801561028757600080fd5b506102aa6004803603810190808035600019169060200190929190505050610eab565b604051808481526020018381526020018260001916600019168152602001935050505060405180910390f35b3480156102e257600080fd5b5061031960048036038101908080356000191690602001909291908035906020019092919080359060200190929190505050610f1a565b604051808215151515815260200191505060405180910390f35b34801561033f57600080fd5b506103486111d3565b604051808273ffffffffffffffffffffffffffffffffffffffff1673ffffffffffffffffffffffffffffffffffffffff16815260200191505060405180910390f35b34801561039657600080fd5b50610457600480360381019080803573ffffffffffffffffffffffffffffffffffffffff169060200190929190803590602001908201803590602001908080601f0160208091040260200160405190810160405280939291908181526020018383808284378201915050505050509192919290803590602001908201803590602001908080601f01602080910402602001604051908101604052809392919081815260200183838082843782019150505050505091929192905050506111f9565b60405180831515151581526020018281526020019250505060405180910390f35b34801561048457600080fd5b506104b9600480360381019080803573ffffffffffffffffffffffffffffffffffffffff169060200190929190505050611394565b6040518082815260200191505060405180910390f35b3480156104db57600080fd5b5061057c600480360381019080803590602001908201803590602001908080601f0160208091040260200160405190810160405280939291908181526020018383808284378201915050505050509192919290803590602001908201803590602001908080601f01602080910402602001604051908101604052809392919081815260200183838082843782019150505050505091929192905050506113e3565b005b34801561058a57600080fd5b5061059361181a565b604051808267ffffffffffffffff1667ffffffffffffffff16815260200191505060405180910390f35b3480156105c957600080fd5b506105f26004803603810190808035906020019092919080359060200190929190505050611834565b60405180826000191660001916815260200191505060405180910390f35b34801561061c57600080fd5b50610651600480360381019080803573ffffffffffffffffffffffffffffffffffffffff169060200190929190505050611864565b005b34801561065f57600080fd5b5061068a60048036038101908080359060200190929190803515159060200190929190505050611967565b604051808215151515815260200191505060405180910390f35b3480156106b057600080fd5b506106b9611e7b565b6040518082815260200191505060405180910390f35b3480156106db57600080fd5b5061071a600480360381019080803573ffffffffffffffffffffffffffffffffffffffff16906020019092919080359060200190929190505050611e80565b6040518085600019166000191681526020018060200180602001848152602001838103835286818151815260200191508051906020019080838360005b83811015610772578082015181840152602081019050610757565b50505050905090810190601f16801561079f5780820380516001836020036101000a031916815260200191505b50838103825285818151815260200191508051906020019080838360005b838110156107d85780820151818401526020810190506107bd565b50505050905090810190601f1680156108055780820380516001836020036101000a031916815260200191505b50965050505050505060405180910390f35b34801561082357600080fd5b506108466004803603810190808035600019169060200190929190505050612152565b604051808215151515815260200191505060405180910390f35b34801561086c57600080fd5b506108756123cd565b604051808273ffffffffffffffffffffffffffffffffffffffff1673ffffffffffffffffffffffffffffffffffffffff16815260200191505060405180910390f35b3480156108c357600080fd5b506108e2600480360381019080803590602001909291905050506123f3565b6040518080602001828103825283818151815260200191508051906020019060200280838360005b8381101561092557808201518184015260208101905061090a565b505050509050019250505060405180910390f35b34801561094557600080fd5b50610a0f600480360381019080803590602001908201803590602001908080601f0160208091040260200160405190810160405280939291908181526020018383808284378201915050505050509192919290803590602001908201803590602001908080601f0160208091040260200160405190810160405280939291908181526020018383808284378201915050505050509192919290803560ff16906020019092919080356000191690602001909291908035600019169060200190929190505050612462565b005b348015610a1d57600080fd5b50610a26612900565b6040518082815260200191505060405180910390f35b348015610a4857600080fd5b50610a7d600480360381019080803573ffffffffffffffffffffffffffffffffffffffff169060200190929190505050612905565b6040518082815260200191505060405180910390f35b348015610a9f57600080fd5b50610b24600480360381019080803573ffffffffffffffffffffffffffffffffffffffff16906020019092919080359060200190929190803590602001908201803590602001908080601f0160208091040260200160405190810160405280939291908181526020018383808284378201915050505050509192919290505050612923565b6040518082815260200191505060405180910390f35b348015610b4657600080fd5b50610b4f612c05565b604051808267ffffffffffffffff1667ffffffffffffffff16815260200191505060405180910390f35b348015610b8557600080fd5b50610b8e612c1f565b6040518082815260200191505060405180910390f35b348015610bb057600080fd5b50610bdd600480360381019080803560001916906020019092919080359060200190929190505050612c24565b604051808215151515815260200191505060405180910390f35b348015610c0357600080fd5b50610c4f6004803603810190808035600019169060200190929190803560ff16906020019092919080356000191690602001909291908035600019169060200190929190505050612c8d565b604051808215151515815260200191505060405180910390f35b348015610c7557600080fd5b50610c986004803603810190808035600019169060200190929190505050612e89565b604051808481526020018381526020018260001916600019168152602001935050505060405180910390f35b348015610cd057600080fd5b50610cef60048036038101908080359060200190929190505050612eb3565b604051808673ffffffffffffffffffffffffffffffffffffffff1673ffffffffffffffffffffffffffffffffffffffff168152602001858152602001806020018415151515815260200183151515158152602001828103825285818151815260200191508051906020019080838360005b83811015610d7b578082015181840152602081019050610d60565b50505050905090810190601f168015610da85780820380516001836020036101000a031916815260200191505b50965050505050505060405180910390f35b348015610dc657600080fd5b50610e09600480360381019080803573ffffffffffffffffffffffffffffffffffffffff1690602001909291908035600019169060200190929190505050612fbb565b60405180831515151581526020018281526020019250505060405180910390f35b60005481565b6000600160008360001916600019168152602001908152602001600020600001549050919050565b600181565b600080600660008473ffffffffffffffffffffffffffffffffffffffff1673ffffffffffffffffffffffffffffffffffffffff16815260200190815260200160002060000154119050919050565b60008060006001600085600019166000191681526020019081526020016000206000015460016000866000191660001916815260200190815260200160002060010154600160008760001916600019168152602001908152602001600020600201549250925092509193909250565b60008360001916600160008660001916600019168152602001908152602001600020600201546000191614151515610fba576040517f08c379a00000000000000000000000000000000000000000000000000000000081526004018080602001828103825260128152602001807f4b657920616c726561647920657869737473000000000000000000000000000081525060200191505060405180910390fd5b3073ffffffffffffffffffffffffffffffffffffffff163373ffffffffffffffffffffffffffffffffffffffff161415156110e55761104a33604051808273ffffffffffffffffffffffffffffffffffffffff1673ffffffffffffffffffffffffffffffffffffffff166c0100000000000000000000000002815260140191505060405180910390206001612c24565b15156110e4576040517f08c379a00000000000000000000000000000000000000000000000000000000081526004018080602001828103825260238152602001807f53656e64657220646f6573206e6f742068617665206d616e6167656d656e742081526020017f6b6579000000000000000000000000000000000000000000000000000000000081525060400191505060405180910390fd5b5b8360016000866000191660001916815260200190815260200160002060020181600019169055508260016000866000191660001916815260200190815260200160002060000181905550816001600086600019166000191681526020019081526020016000206001018190555060026000848152602001908152602001600020849080600181540180825580915050906001820390600052602060002001600090919290919091509060001916905550818385600019167f480000bb1edad8ca1470381cc334b1917fbd51c6531f3a623ea8e0ec7e38a6e960405160405180910390a4600190509392505050565b600560009054906101000a900473ffffffffffffffffffffffffffffffffffffffff1681565b60008060008561120881610e5d565b151561121357600080fd5b868686604051602001808473ffffffffffffffffffffffffffffffffffffffff1673ffffffffffffffffffffffffffffffffffffffff166c0100000000000000000000000002815260140183805190602001908083835b60208310151561128f578051825260208201915060208101905060208303925061126a565b6001836020036101000a03801982511681845116808217855250505050505090500182805190602001908083835b6020831015156112e257805182526020820191506020810190506020830392506112bd565b6001836020036101000a03801982511681845116808217855250505050505090500193505050506040516020818303038152906040526040518082805190602001908083835b60208310151561134d5780518252602082019150602081019050602083039250611328565b6001836020036101000a038019825116818451168082178552505050505050905001915050604051809103902091506113868783612fbb565b935093505050935093915050565b6000600660008373ffffffffffffffffffffffffffffffffffffffff1673ffffffffffffffffffffffffffffffffffffffff168152602001908152602001600020600101805490509050919050565b600080600080336113f381610e5d565b15156113fe57600080fd5b6114093388886111f9565b809550819650505084151561141d57600080fd5b600660003373ffffffffffffffffffffffffffffffffffffffff1673ffffffffffffffffffffffffffffffffffffffff1681526020019081526020016000206001018481548110151561146c57fe5b9060005260206000209060060201600401549250600660003373ffffffffffffffffffffffffffffffffffffffff1673ffffffffffffffffffffffffffffffffffffffff168152602001908152602001600020600101805490509150600182038414151561163657600660003373ffffffffffffffffffffffffffffffffffffffff1673ffffffffffffffffffffffffffffffffffffffff1681526020019081526020016000206001016001830381548110151561152657fe5b9060005260206000209060060201600660003373ffffffffffffffffffffffffffffffffffffffff1673ffffffffffffffffffffffffffffffffffffffff1681526020019081526020016000206001018581548110151561158357fe5b9060005260206000209060060201600082018160000190805460018160011615610100020316600290046115b89291906130c4565b50600182018160010190805460018160011615610100020316600290046115e09291906130c4565b50600282015481600201556003820160009054906101000a900460ff168160030160006101000a81548160ff02191690831515021790555060048201548160040190600019169055600582015481600501559050505b600660003373ffffffffffffffffffffffffffffffffffffffff1673ffffffffffffffffffffffffffffffffffffffff16815260200190815260200160002060010180548091906001900361168b919061314b565b506001600760088282829054906101000a900467ffffffffffffffff160392506101000a81548167ffffffffffffffff021916908367ffffffffffffffff1602179055506000600660003373ffffffffffffffffffffffffffffffffffffffff1673ffffffffffffffffffffffffffffffffffffffff1681526020019081526020016000206001018054905014156117bb57600660003373ffffffffffffffffffffffffffffffffffffffff1673ffffffffffffffffffffffffffffffffffffffff168152602001908152602001600020600080820160009055600182016000611775919061317d565b50506001600760008282829054906101000a900467ffffffffffffffff160392506101000a81548167ffffffffffffffff021916908367ffffffffffffffff1602179055505b3373ffffffffffffffffffffffffffffffffffffffff167f66533e921f088138d3807a89c7182f77f17b2b648ff59fd66be28f364e44204a8460405180826000191660001916815260200191505060405180910390a250505050505050565b600760089054906101000a900467ffffffffffffffff1681565b60026020528160005260406000208181548110151561184f57fe5b90600052602060002001600091509150505481565b600460009054906101000a900473ffffffffffffffffffffffffffffffffffffffff1673ffffffffffffffffffffffffffffffffffffffff163373ffffffffffffffffffffffffffffffffffffffff161415156118c057600080fd5b80600560006101000a81548173ffffffffffffffffffffffffffffffffffffffff021916908373ffffffffffffffffffffffffffffffffffffffff1602179055507fee87a28570c895f7da676d522308fff544b84e34ac47fcb36b53f5ef848e5e3281604051808273ffffffffffffffffffffffffffffffffffffffff1673ffffffffffffffffffffffffffffffffffffffff16815260200191505060405180910390a150565b60006119c433604051808273ffffffffffffffffffffffffffffffffffffffff1673ffffffffffffffffffffffffffffffffffffffff166c0100000000000000000000000002815260140191505060405180910390206002612c24565b1515611a38576040517f08c379a000000000000000000000000000000000000000000000000000000000815260040180806020018281038252601f8152602001807f53656e64657220646f6573206e6f74206861766520616374696f6e206b65790081525060200191505060405180910390fd5b827fb3932da477fe5d6c8ff2eafef050c0f3a1af18fc07121001482600f36f3715d883604051808215151515815260200191505060405180910390a2600115158215151415611e415760016003600085815260200190815260200160002060030160006101000a81548160ff0219169083151502179055506003600084815260200190815260200160002060000160009054906101000a900473ffffffffffffffffffffffffffffffffffffffff1673ffffffffffffffffffffffffffffffffffffffff166003600085815260200190815260200160002060020160006040518083805460018160011615610100020316600290048015611b7a5780601f10611b4f57610100808354040283529160200191611b7a565b820191906000526020600020905b815481529060010190602001808311611b5d57829003601f168201915b50508260ff168152602001925050506000604051808303816000865af191505090508015611d095760016003600085815260200190815260200160002060030160016101000a81548160ff02191690831515021790555060036000848152602001908152602001600020600101546003600085815260200190815260200160002060000160009054906101000a900473ffffffffffffffffffffffffffffffffffffffff1673ffffffffffffffffffffffffffffffffffffffff16847f1f920dbda597d7bf95035464170fa58d0a4b57f13a1c315ace6793b9f63688b8600360008881526020019081526020016000206002016040518080602001828103825283818154600181600116156101000203166002900481526020019150805460018160011615610100020316600290048015611cf65780601f10611ccb57610100808354040283529160200191611cf6565b820191906000526020600020905b815481529060010190602001808311611cd957829003601f168201915b50509250505060405180910390a4611e75565b60036000848152602001908152602001600020600101546003600085815260200190815260200160002060000160009054906101000a900473ffffffffffffffffffffffffffffffffffffffff1673ffffffffffffffffffffffffffffffffffffffff16847fe10c49d9f7c71da23262367013434763cfdb2332267641728d25cd712c5c6a68600360008881526020019081526020016000206002016040518080602001828103825283818154600181600116156101000203166002900481526020019150805460018160011615610100020316600290048015611e2e5780601f10611e0357610100808354040283529160200191611e2e565b820191906000526020600020905b815481529060010190602001808311611e1157829003601f168201915b50509250505060405180910390a4611e75565b60006003600085815260200190815260200160002060030160006101000a81548160ff021916908315150217905550600190505b92915050565b600281565b60006060806000600660008773ffffffffffffffffffffffffffffffffffffffff1673ffffffffffffffffffffffffffffffffffffffff16815260200190815260200160002060010185815481101515611ed657fe5b906000526020600020906006020160040154600660008873ffffffffffffffffffffffffffffffffffffffff1673ffffffffffffffffffffffffffffffffffffffff16815260200190815260200160002060010186815481101515611f3757fe5b9060005260206000209060060201600001600660008973ffffffffffffffffffffffffffffffffffffffff1673ffffffffffffffffffffffffffffffffffffffff16815260200190815260200160002060010187815481101515611f9757fe5b9060005260206000209060060201600101600660008a73ffffffffffffffffffffffffffffffffffffffff1673ffffffffffffffffffffffffffffffffffffffff16815260200190815260200160002060010188815481101515611ff757fe5b906000526020600020906006020160020154828054600181600116156101000203166002900480601f01602080910402602001604051908101604052809291908181526020018280546001816001161561010002031660029004801561209e5780601f106120735761010080835404028352916020019161209e565b820191906000526020600020905b81548152906001019060200180831161208157829003601f168201915b50505050509250818054600181600116156101000203166002900480601f01602080910402602001604051908101604052809291908181526020018280546001816001161561010002031660029004801561213a5780601f1061210f5761010080835404028352916020019161213a565b820191906000526020600020905b81548152906001019060200180831161211d57829003601f168201915b50505050509150935093509350935092959194509250565b600080826000191660016000856000191660001916815260200190815260200160002060020154600019161415156121f2576040517f08c379a000000000000000000000000000000000000000000000000000000000815260040180806020018281038252600b8152602001807f4e6f2073756368206b657900000000000000000000000000000000000000000081525060200191505060405180910390fd5b33604051808273ffffffffffffffffffffffffffffffffffffffff1673ffffffffffffffffffffffffffffffffffffffff166c01000000000000000000000000028152601401915050604051809103902090506001806000836000191660001916815260200190815260200160002060000154141515612300576040517f08c379a000000000000000000000000000000000000000000000000000000000815260040180806020018281038252602d8152602001807f4d414e4147454d454e545f4b455920707572706f73652072657175697265642081526020017f666f722072656d6f76654b65790000000000000000000000000000000000000081525060400191505060405180910390fd5b600160008460001916600019168152602001908152602001600020600101546001600085600019166000191681526020019081526020016000206000015460016000866000191660001916815260200190815260200160002060020154600019167f585a4aef50f8267a92b32412b331b20f7f8b96f2245b253b9cc50dcc621d339760405160405180910390a46001600084600019166000191681526020019081526020016000206000808201600090556001820160009055600282016000905550506001915050919050565b600460009054906101000a900473ffffffffffffffffffffffffffffffffffffffff1681565b60606002600083815260200190815260200160002080548060200260200160405190810160405280929190818152602001828054801561245657602002820191906000526020600020905b8154600019168152602001906001019080831161243e575b50505050509050919050565b61246a6131a1565b600080875111151561247b57600080fd5b6000865111151561248b57600080fd5b7fffffffffffffffffffffffffffffffffffffffffffffffffffffffffffffffff600660003373ffffffffffffffffffffffffffffffffffffffff1673ffffffffffffffffffffffffffffffffffffffff168152602001908152602001600020600101805490501015156124fe57600080fd5b61250733610e5d565b15156125985743600660003373ffffffffffffffffffffffffffffffffffffffff1673ffffffffffffffffffffffffffffffffffffffff168152602001908152602001600020600001819055506001600760008282829054906101000a900467ffffffffffffffff160192506101000a81548167ffffffffffffffff021916908367ffffffffffffffff1602179055505b868260000181905250858260200181905250428260400181815250506001826060019015159081151581525050438260a00181815250503382600001518360200151604051602001808473ffffffffffffffffffffffffffffffffffffffff1673ffffffffffffffffffffffffffffffffffffffff166c0100000000000000000000000002815260140183805190602001908083835b602083101515612653578051825260208201915060208101905060208303925061262e565b6001836020036101000a03801982511681845116808217855250505050505090500182805190602001908083835b6020831015156126a65780518252602082019150602081019050602083039250612681565b6001836020036101000a03801982511681845116808217855250505050505090500193505050506040516020818303038152906040526040518082805190602001908083835b60208310151561271157805182526020820191506020810190506020830392506126ec565b6001836020036101000a0380198251168184511680821785525050505050509050019150506040518091039020905061274c81868686612c8d565b151561275757600080fd5b8082608001906000191690816000191681525050600660003373ffffffffffffffffffffffffffffffffffffffff1673ffffffffffffffffffffffffffffffffffffffff168152602001908152602001600020600101829080600181540180825580915050906001820390600052602060002090600602016000909192909190915060008201518160000190805190602001906127f59291906131dd565b5060208201518160010190805190602001906128129291906131dd565b506040820151816002015560608201518160030160006101000a81548160ff0219169083151502179055506080820151816004019060001916905560a082015181600501555050506001600760088282829054906101000a900467ffffffffffffffff160192506101000a81548167ffffffffffffffff021916908367ffffffffffffffff1602179055503373ffffffffffffffffffffffffffffffffffffffff167f2ded3da8fc0df7b3c85954545d0dfca5f7d03f5e6d96853c182e6ca7229262db836080015160405180826000191660001916815260200191505060405180910390a250505050505050565b600481565b60066020528060005260406000206000915090508060000154905081565b6000600360008054815260200190815260200160002060030160019054906101000a900460ff161515156129bf576040517f08c379a00000000000000000000000000000000000000000000000000000000081526004018080602001828103825260108152602001807f416c72656164792065786563757465640000000000000000000000000000000081525060200191505060405180910390fd5b83600360008054815260200190815260200160002060000160006101000a81548173ffffffffffffffffffffffffffffffffffffffff021916908373ffffffffffffffffffffffffffffffffffffffff160217905550826003600080548152602001908152602001600020600101819055508160036000805481526020019081526020016000206002019080519060200190612a5c92919061325d565b50828473ffffffffffffffffffffffffffffffffffffffff166000547f8afcfabcb00e47a53a8fc3e9f23ff47ee1926194bb1350dd007c50b412a6cee8856040518080602001828103825283818151815260200191508051906020019080838360005b83811015612ada578082015181840152602081019050612abf565b50505050905090810190601f168015612b075780820380516001836020036101000a031916815260200191505b509250505060405180910390a4612b6f33604051808273ffffffffffffffffffffffffffffffffffffffff1673ffffffffffffffffffffffffffffffffffffffff166c0100000000000000000000000002815260140191505060405180910390206001612c24565b80612bd15750612bd033604051808273ffffffffffffffffffffffffffffffffffffffff1673ffffffffffffffffffffffffffffffffffffffff166c0100000000000000000000000002815260140191505060405180910390206002612c24565b5b15612be557612be36000546001611967565b505b600080815480929190600101919050555060016000540390509392505050565b600760009054906101000a900467ffffffffffffffff1681565b600381565b600080600060010260016000866000191660001916815260200190815260200160002060020154600019161415612c5e5760009150612c86565b8260016000866000191660001916815260200190815260200160002060000154111590508091505b5092915050565b6000606060006040805190810160405280601c81526020017f19457468657265756d205369676e6564204d6573736167653a0a333200000000815250915081876040516020018083805190602001908083835b602083101515612d055780518252602082019150602081019050602083039250612ce0565b6001836020036101000a0380198251168184511680821785525050505050509050018260001916600019168152602001925050506040516020818303038152906040526040518082805190602001908083835b602083101515612d7d5780518252602082019150602081019050602083039250612d58565b6001836020036101000a03801982511681845116808217855250505050505090500191505060405180910390209050600560009054906101000a900473ffffffffffffffffffffffffffffffffffffffff1673ffffffffffffffffffffffffffffffffffffffff16600182888888604051600081526020016040526040518085600019166000191681526020018460ff1660ff1681526020018360001916600019168152602001826000191660001916815260200194505050505060206040516020810390808403906000865af1158015612e5c573d6000803e3d6000fd5b5050506020604051035173ffffffffffffffffffffffffffffffffffffffff161492505050949350505050565b60016020528060005260406000206000915090508060000154908060010154908060020154905083565b60036020528060005260406000206000915090508060000160009054906101000a900473ffffffffffffffffffffffffffffffffffffffff1690806001015490806002018054600181600116156101000203166002900480601f016020809104026020016040519081016040528092919081815260200182805460018160011615610100020316600290048015612f8b5780601f10612f6057610100808354040283529160200191612f8b565b820191906000526020600020905b815481529060010190602001808311612f6e57829003601f168201915b5050505050908060030160009054906101000a900460ff16908060030160019054906101000a900460ff16905085565b600080600084612fca81610e5d565b1515612fd557600080fd5b600091505b600660008773ffffffffffffffffffffffffffffffffffffffff1673ffffffffffffffffffffffffffffffffffffffff168152602001908152602001600020600101805490508210156130b0578460001916600660008873ffffffffffffffffffffffffffffffffffffffff1673ffffffffffffffffffffffffffffffffffffffff1681526020019081526020016000206001018381548110151561307b57fe5b9060005260206000209060060201600401546000191614156130a357600182935093506130bb565b8180600101925050612fda565b600080809050935093505b50509250929050565b828054600181600116156101000203166002900490600052602060002090601f016020900481019282601f106130fd578054855561313a565b8280016001018555821561313a57600052602060002091601f016020900482015b8281111561313957825482559160010191906001019061311e565b5b50905061314791906132dd565b5090565b815481835581811115613178576006028160060283600052602060002091820191016131779190613302565b5b505050565b508054600082556006029060005260206000209081019061319e9190613302565b50565b60c06040519081016040528060608152602001606081526020016000815260200160001515815260200160008019168152602001600081525090565b828054600181600116156101000203166002900490600052602060002090601f016020900481019282601f1061321e57805160ff191683800117855561324c565b8280016001018555821561324c579182015b8281111561324b578251825591602001919060010190613230565b5b50905061325991906132dd565b5090565b828054600181600116156101000203166002900490600052602060002090601f016020900481019282601f1061329e57805160ff19168380011785556132cc565b828001600101855582156132cc579182015b828111156132cb5782518255916020019190600101906132b0565b5b5090506132d991906132dd565b5090565b6132ff91905b808211156132fb5760008160009055506001016132e3565b5090565b90565b61336a91905b808211156133665760008082016000613321919061336d565b600182016000613331919061336d565b60028201600090556003820160006101000a81549060ff02191690556004820160009055600582016000905550600601613308565b5090565b90565b50805460018160011615610100020316600290046000825580601f1061339357506133b2565b601f0160209004906000526020600020908101906133b191906132dd565b5b505600a165627a7a723058209a972f9fa37049e9d9c6937b5ed4f4b46a3d5e2f25eb598ea55d356b95be825d0029",
  "source": "pragma solidity ^0.4.4;\n\nimport \"./KeyHolder.sol\";\n\n\ncontract PoBA is KeyHolder {\n  address public owner;\n  address public signer;\n\n  constructor() public {\n    owner = msg.sender;\n    signer = owner;\n  }\n\n  struct BankAccount {\n    string bankName;\n    string identityNames;\n    uint256 attestationDate;\n    bool attestationFact;\n    bytes32 keccakIdentifier;\n    uint256 creationBlock;\n  }\n\n  struct User {\n    uint256 creationBlock;\n    BankAccount[] bankAccounts;\n  }\n\n  mapping (address => User) public users;\n\n  // Stats:\n  uint64 public totalUsers;\n  uint64 public totalBankAccounts;\n\n  // Events:\n  event LogBankAccountRegistered(address indexed wallet, bytes32 keccakIdentifier);\n  event LogBankAccountUnregistered(address indexed wallet, bytes32 keccakIdentifier);\n  event LogSignerChanged(address newSigner);\n\n  // Modifiers:\n  modifier onlyOwner() {\n    require(msg.sender == owner);\n    _;\n  }\n\n  modifier checkUserExists(address wallet) {\n    require(userExists(wallet));\n    _;\n  }\n\n  function signerIsValid(bytes32 data, uint8 v, bytes32 r, bytes32 s)\n  public constant returns (bool)\n  {\n    bytes memory prefix = \"\\x19Ethereum Signed Message:\\n32\";\n    bytes32 prefixed = keccak256(abi.encodePacked(prefix, data));\n    return (ecrecover(prefixed, v, r, s) == signer);\n  }\n\n  function userExists(address wallet)\n  public view returns (bool)\n  {\n    return (users[wallet].creationBlock > 0);\n  }\n\n  // Methods:\n  // set address that is used on server-side to calculate signatures\n  // and on contract-side to verify them\n  function setSigner(address newSigner) public onlyOwner {\n    signer = newSigner;\n    emit LogSignerChanged(newSigner);\n  }\n\n  function registerBankAccount(\n    string institution,\n    string names,\n    uint8 v, bytes32 r, bytes32 s) public {\n\n    require(bytes(institution).length > 0);\n    require(bytes(names).length > 0);\n    require(users[msg.sender].bankAccounts.length < 2**256-1);\n\n    if (!userExists(msg.sender)) {\n      // new user\n      users[msg.sender].creationBlock = block.number;\n      totalUsers += 1;\n    }\n\n    BankAccount memory ba;\n\n    ba.bankName = institution;\n    ba.identityNames = names;\n    ba.attestationDate = now;\n    ba.attestationFact = true;\n    ba.creationBlock = block.number;\n\n    bytes32 hash = keccak256(abi.encodePacked(msg.sender, ba.bankName, ba.identityNames));\n    require(signerIsValid(hash, v, r, s));\n    ba.keccakIdentifier = hash;\n\n    users[msg.sender].bankAccounts.push(ba);\n    totalBankAccounts += 1;\n\n    emit LogBankAccountRegistered(msg.sender, ba.keccakIdentifier);\n  }\n\n  function unregisterBankAccount(string institution, string names)\n  public checkUserExists(msg.sender)\n  {\n    bool found;\n    uint256 index;\n    (found, index) = userBankAccountByBankAccount(msg.sender, institution, names);\n    require(found);\n\n    // Store keccakIdentifier for logging purpose\n    bytes32 keccakIdentifier = users[msg.sender].bankAccounts[index].keccakIdentifier;\n\n    // Remove bank account from the list\n    uint256 length = users[msg.sender].bankAccounts.length;\n\n    if (index != length - 1) {\n      users[msg.sender].bankAccounts[index] = users[msg.sender].bankAccounts[length - 1];\n    }\n    users[msg.sender].bankAccounts.length--;\n    totalBankAccounts -= 1;\n\n    if (users[msg.sender].bankAccounts.length == 0) {\n      delete users[msg.sender];\n      totalUsers -= 1;\n    }\n\n    emit LogBankAccountUnregistered(msg.sender, keccakIdentifier);\n  }\n\n  // returns (found/not found, index if found/0 if not found, confirmed/not confirmed)\n  function userBankAccountByBankAccount(address wallet, string institution, string names)\n  public view checkUserExists(wallet) returns(bool, uint256)\n  {\n    bytes32 keccakIdentifier = keccak256(abi.encodePacked(wallet, institution, names));\n    return userBankAccountByKeccakIdentifier(wallet, keccakIdentifier);\n  }\n\n  // returns (found/not found, index if found/0 if not found, confirmed/not confirmed)\n  function userBankAccountByKeccakIdentifier(address wallet, bytes32 keccakIdentifier)\n  public view checkUserExists(wallet) returns(bool, uint256)\n  {\n    for (uint256 ai = 0; ai < users[wallet].bankAccounts.length; ai++) {\n      if (users[wallet].bankAccounts[ai].keccakIdentifier == keccakIdentifier) {\n        return (true, ai);\n      }\n    }\n    return (false, 0);\n  }\n\n  function userBankAccountsLength(address _address) public constant returns (uint256) {\n    return users[_address].bankAccounts.length;\n  }\n\n  function getBankAccountsByAddress(address _address, uint256 addressIndex) public constant\n  returns (bytes32 keccakIdentifier, string bankName, string identityNames, uint256 attestationDate)\n  {\n    return (\n      users[_address].bankAccounts[addressIndex].keccakIdentifier,\n      users[_address].bankAccounts[addressIndex].bankName,\n      users[_address].bankAccounts[addressIndex].identityNames,\n      users[_address].bankAccounts[addressIndex].attestationDate\n    );\n  }\n}\n",
  "sourcePath": "/home/topones8/Work/altoros/poa-poba/blockchain/contracts/PoBA.sol",
  "compiler": {
    "name": "solc",
    "version": "0.4.24+commit.e67f0147.Emscripten.clang"
  },
  "schemaVersion": "2.0.0",
  "updatedAt": "2018-12-08T02:10:07.721Z"
}