{
  "contractName": "PoBA",
  "abi": [
    {
      "constant": true,
      "inputs": [],
      "name": "signer",
      "outputs": [
        {
          "name": "",
          "type": "address"
        }
      ],
      "payable": false,
      "stateMutability": "view",
      "type": "function"
    },
    {
      "constant": true,
      "inputs": [],
      "name": "owner",
      "outputs": [
        {
          "name": "",
          "type": "address"
        }
      ],
      "payable": false,
      "stateMutability": "view",
      "type": "function"
    },
    {
      "constant": true,
      "inputs": [
        {
          "name": "",
          "type": "address"
        }
      ],
      "name": "users",
      "outputs": [
        {
          "name": "creationBlock",
          "type": "uint256"
        }
      ],
      "payable": false,
      "stateMutability": "view",
      "type": "function"
    },
    {
      "inputs": [],
      "payable": false,
      "stateMutability": "nonpayable",
      "type": "constructor"
    },
    {
      "constant": true,
      "inputs": [
        {
          "name": "data",
          "type": "bytes32"
        },
        {
          "name": "v",
          "type": "uint8"
        },
        {
          "name": "r",
          "type": "bytes32"
        },
        {
          "name": "s",
          "type": "bytes32"
        }
      ],
      "name": "signerIsValid",
      "outputs": [
        {
          "name": "",
          "type": "bool"
        }
      ],
      "payable": false,
      "stateMutability": "view",
      "type": "function"
    },
    {
      "constant": true,
      "inputs": [
        {
          "name": "wallet",
          "type": "address"
        }
      ],
      "name": "userExists",
      "outputs": [
        {
          "name": "",
          "type": "bool"
        }
      ],
      "payable": false,
      "stateMutability": "view",
      "type": "function"
    },
    {
      "constant": false,
      "inputs": [
        {
          "name": "account",
          "type": "string"
        },
        {
          "name": "institution",
          "type": "string"
        },
        {
          "name": "v",
          "type": "uint8"
        },
        {
          "name": "r",
          "type": "bytes32"
        },
        {
          "name": "s",
          "type": "bytes32"
        }
      ],
      "name": "register",
      "outputs": [],
      "payable": false,
      "stateMutability": "nonpayable",
      "type": "function"
    },
    {
      "constant": true,
      "inputs": [
        {
          "name": "_address",
          "type": "address"
        }
      ],
      "name": "accountsLength",
      "outputs": [
        {
          "name": "",
          "type": "uint256"
        }
      ],
      "payable": false,
      "stateMutability": "view",
      "type": "function"
    },
    {
      "constant": true,
      "inputs": [
        {
          "name": "_address",
          "type": "address"
        },
        {
          "name": "addressIndex",
          "type": "uint256"
        }
      ],
      "name": "getBankAccounts",
      "outputs": [
        {
          "name": "accountNumber",
          "type": "string"
        },
        {
          "name": "bankName",
          "type": "string"
        },
        {
          "name": "attestationDate",
          "type": "uint256"
        }
      ],
      "payable": false,
      "stateMutability": "view",
      "type": "function"
    }
  ],
  "bytecode": "0x608060405234801561001057600080fd5b50336000806101000a81548173ffffffffffffffffffffffffffffffffffffffff021916908373ffffffffffffffffffffffffffffffffffffffff1602179055506000809054906101000a900473ffffffffffffffffffffffffffffffffffffffff16600160006101000a81548173ffffffffffffffffffffffffffffffffffffffff021916908373ffffffffffffffffffffffffffffffffffffffff160217905550610ed7806100c26000396000f30060806040526004361061008e576000357c0100000000000000000000000000000000000000000000000000000000900463ffffffff1680630e666e4914610093578063170b4ec4146100ee5780631e0ce1c5146101c6578063238ac933146102ff5780635c46d5a1146103565780638da5cb5b146103ad578063a87430ba14610404578063d956be101461045b575b600080fd5b34801561009f57600080fd5b506100d4600480360381019080803573ffffffffffffffffffffffffffffffffffffffff1690602001909291905050506104cd565b604051808215151515815260200191505060405180910390f35b3480156100fa57600080fd5b506101c4600480360381019080803590602001908201803590602001908080601f0160208091040260200160405190810160405280939291908181526020018383808284378201915050505050509192919290803590602001908201803590602001908080601f0160208091040260200160405190810160405280939291908181526020018383808284378201915050505050509192919290803560ff1690602001909291908035600019169060200190929190803560001916906020019092919050505061051b565b005b3480156101d257600080fd5b50610211600480360381019080803573ffffffffffffffffffffffffffffffffffffffff169060200190929190803590602001909291905050506108b5565b604051808060200180602001848152602001838103835286818151815260200191508051906020019080838360005b8381101561025b578082015181840152602081019050610240565b50505050905090810190601f1680156102885780820380516001836020036101000a031916815260200191505b50838103825285818151815260200191508051906020019080838360005b838110156102c15780820151818401526020810190506102a6565b50505050905090810190601f1680156102ee5780820380516001836020036101000a031916815260200191505b509550505050505060405180910390f35b34801561030b57600080fd5b50610314610b20565b604051808273ffffffffffffffffffffffffffffffffffffffff1673ffffffffffffffffffffffffffffffffffffffff16815260200191505060405180910390f35b34801561036257600080fd5b50610397600480360381019080803573ffffffffffffffffffffffffffffffffffffffff169060200190929190505050610b46565b6040518082815260200191505060405180910390f35b3480156103b957600080fd5b506103c2610b95565b604051808273ffffffffffffffffffffffffffffffffffffffff1673ffffffffffffffffffffffffffffffffffffffff16815260200191505060405180910390f35b34801561041057600080fd5b50610445600480360381019080803573ffffffffffffffffffffffffffffffffffffffff169060200190929190505050610bba565b6040518082815260200191505060405180910390f35b34801561046757600080fd5b506104b36004803603810190808035600019169060200190929190803560ff16906020019092919080356000191690602001909291908035600019169060200190929190505050610bd8565b604051808215151515815260200191505060405180910390f35b600080600260008473ffffffffffffffffffffffffffffffffffffffff1673ffffffffffffffffffffffffffffffffffffffff16815260200190815260200160002060000154119050919050565b610523610dd4565b600080875111151561053457600080fd5b6000865111151561054457600080fd5b7fffffffffffffffffffffffffffffffffffffffffffffffffffffffffffffffff600260003373ffffffffffffffffffffffffffffffffffffffff1673ffffffffffffffffffffffffffffffffffffffff168152602001908152602001600020600101805490501015156105b757600080fd5b6105c0336104cd565b151561060e5743600260003373ffffffffffffffffffffffffffffffffffffffff1673ffffffffffffffffffffffffffffffffffffffff168152602001908152602001600020600001819055505b868260000181905250858260200181905250428260400181815250506001826060019015159081151581525050438260800181815250503382600001518360200151604051602001808473ffffffffffffffffffffffffffffffffffffffff1673ffffffffffffffffffffffffffffffffffffffff166c0100000000000000000000000002815260140183805190602001908083835b6020831015156106c957805182526020820191506020810190506020830392506106a4565b6001836020036101000a03801982511681845116808217855250505050505090500182805190602001908083835b60208310151561071c57805182526020820191506020810190506020830392506106f7565b6001836020036101000a03801982511681845116808217855250505050505090500193505050506040516020818303038152906040526040518082805190602001908083835b6020831015156107875780518252602082019150602081019050602083039250610762565b6001836020036101000a038019825116818451168082178552505050505050905001915050604051809103902090506107c281868686610bd8565b15156107cd57600080fd5b600260003373ffffffffffffffffffffffffffffffffffffffff1673ffffffffffffffffffffffffffffffffffffffff16815260200190815260200160002060010182908060018154018082558091505090600182039060005260206000209060050201600090919290919091506000820151816000019080519060200190610857929190610e06565b506020820151816001019080519060200190610874929190610e06565b506040820151816002015560608201518160030160006101000a81548160ff0219169083151502179055506080820151816004015550505050505050505050565b6060806000600260008673ffffffffffffffffffffffffffffffffffffffff1673ffffffffffffffffffffffffffffffffffffffff1681526020019081526020016000206001018481548110151561090957fe5b9060005260206000209060050201600001600260008773ffffffffffffffffffffffffffffffffffffffff1673ffffffffffffffffffffffffffffffffffffffff1681526020019081526020016000206001018581548110151561096957fe5b9060005260206000209060050201600101600260008873ffffffffffffffffffffffffffffffffffffffff1673ffffffffffffffffffffffffffffffffffffffff168152602001908152602001600020600101868154811015156109c957fe5b906000526020600020906005020160020154828054600181600116156101000203166002900480601f016020809104026020016040519081016040528092919081815260200182805460018160011615610100020316600290048015610a705780601f10610a4557610100808354040283529160200191610a70565b820191906000526020600020905b815481529060010190602001808311610a5357829003601f168201915b50505050509250818054600181600116156101000203166002900480601f016020809104026020016040519081016040528092919081815260200182805460018160011615610100020316600290048015610b0c5780601f10610ae157610100808354040283529160200191610b0c565b820191906000526020600020905b815481529060010190602001808311610aef57829003601f168201915b505050505091509250925092509250925092565b600160009054906101000a900473ffffffffffffffffffffffffffffffffffffffff1681565b6000600260008373ffffffffffffffffffffffffffffffffffffffff1673ffffffffffffffffffffffffffffffffffffffff168152602001908152602001600020600101805490509050919050565b6000809054906101000a900473ffffffffffffffffffffffffffffffffffffffff1681565b60026020528060005260406000206000915090508060000154905081565b6000606060006040805190810160405280601c81526020017f19457468657265756d205369676e6564204d6573736167653a0a333200000000815250915081876040516020018083805190602001908083835b602083101515610c505780518252602082019150602081019050602083039250610c2b565b6001836020036101000a0380198251168184511680821785525050505050509050018260001916600019168152602001925050506040516020818303038152906040526040518082805190602001908083835b602083101515610cc85780518252602082019150602081019050602083039250610ca3565b6001836020036101000a03801982511681845116808217855250505050505090500191505060405180910390209050600160009054906101000a900473ffffffffffffffffffffffffffffffffffffffff1673ffffffffffffffffffffffffffffffffffffffff16600182888888604051600081526020016040526040518085600019166000191681526020018460ff1660ff1681526020018360001916600019168152602001826000191660001916815260200194505050505060206040516020810390808403906000865af1158015610da7573d6000803e3d6000fd5b5050506020604051035173ffffffffffffffffffffffffffffffffffffffff161492505050949350505050565b60a060405190810160405280606081526020016060815260200160008152602001600015158152602001600081525090565b828054600181600116156101000203166002900490600052602060002090601f016020900481019282601f10610e4757805160ff1916838001178555610e75565b82800160010185558215610e75579182015b82811115610e74578251825591602001919060010190610e59565b5b509050610e829190610e86565b5090565b610ea891905b80821115610ea4576000816000905550600101610e8c565b5090565b905600a165627a7a72305820b66420878577dd65521a1489e02215eef0e66e69c9e28485d1e98af62db851a70029",
  "source": "pragma solidity ^0.4.4;\n\n\ncontract PoBA {\n  address public owner;\n  address public signer;\n\n  constructor() public {\n    owner = msg.sender;\n    signer = owner;\n  }\n\n  struct BankAccount {\n    string accountNumber;\n    string bankName;\n    uint256 attestationDate;\n    bool attestationFact;\n\n    uint256 creationBlock;\n  }\n\n  struct User {\n    uint256 creationBlock;\n    BankAccount[] bankAccounts;\n  }\n\n  mapping (address => User) public users;\n\n  function signerIsValid(bytes32 data, uint8 v, bytes32 r, bytes32 s)\n  public constant returns (bool)\n  {\n      bytes memory prefix = \"\\x19Ethereum Signed Message:\\n32\";\n      bytes32 prefixed = keccak256(abi.encodePacked(prefix, data));\n      return (ecrecover(prefixed, v, r, s) == signer);\n  }\n\n  function userExists(address wallet)\n  public view returns (bool)\n  {\n    return (users[wallet].creationBlock > 0);\n  }\n\n  function register(\n    string account,\n    string institution,\n    uint8 v, bytes32 r, bytes32 s) public {\n\n    require(bytes(account).length > 0);\n    require(bytes(institution).length > 0);\n    require(users[msg.sender].bankAccounts.length < 2**256-1);\n\n    if (!userExists(msg.sender)) {\n      // new user\n      users[msg.sender].creationBlock = block.number;\n    }\n\n    BankAccount memory ba;\n\n    ba.accountNumber = account;\n    ba.bankName = institution;\n    ba.attestationDate = now;\n    ba.attestationFact = true;\n    ba.creationBlock = block.number;\n\n    bytes32 hash = keccak256(\n    abi.encodePacked(\n      msg.sender,\n        ba.accountNumber,\n        ba.bankName\n    ));\n    require(signerIsValid(hash, v, r, s));\n\n    users[msg.sender].bankAccounts.push(ba);\n  }\n\n  function accountsLength(address _address) public constant returns (uint256) {\n    return users[_address].bankAccounts.length;\n  }\n\n  function getBankAccounts(address _address, uint256 addressIndex) public constant\n  returns (string accountNumber, string bankName, uint256 attestationDate)\n  {\n    return (\n    users[_address].bankAccounts[addressIndex].accountNumber,\n    users[_address].bankAccounts[addressIndex].bankName,\n    users[_address].bankAccounts[addressIndex].attestationDate\n    );\n  }\n}\n",
  "sourcePath": "/Users/matias/GitHub/poa-poba/blockchain/contracts/PoBA.sol",
  "compiler": {
    "name": "solc",
    "version": "0.4.24+commit.e67f0147.Emscripten.clang"
  },
  "schemaVersion": "2.0.0",
  "updatedAt": "2018-08-10T18:59:47.347Z"
}